{
	"data": {
		"bytecode": {
			"linkReferences": {},
			"object": "608060405234801561001057600080fd5b506003805460ff19169055611dee8061002a6000396000f3fe608060405234801561001057600080fd5b506004361061018d5760003560e01c806382d95df5116100de578063c60c5e7711610097578063d4a6da0911610071578063d4a6da091461037f578063dc023d9714610392578063e985e9c5146103a5578063f242432a146103d357600080fd5b8063c60c5e7714610346578063c84aae1714610359578063cd6dc6871461036c57600080fd5b806382d95df5146102d15780638456cb59146102e45780638da5cb5b146102ec57806391ba317a14610317578063a22cb46514610320578063c45a01551461033357600080fd5b80632eb2c2d61161014b5780634e1273f4116101255780634e1273f4146102755780635c975abb14610288578063734ee5fc146102935780637cb64759146102be57600080fd5b80632eb2c2d6146102515780632eb4a7ab146102645780633f4ba83a1461026d57600080fd5b8062fdd58e1461019257806301ffc9a7146101d0578063071d709f146101f35780630b97bc86146102135780630e89341c1461021c578063202fcbbd1461023c575b600080fd5b6101bd6101a036600461161f565b600160209081526000928352604080842090915290825290205481565b6040519081526020015b60405180910390f35b6101e36101de366004611662565b6103e6565b60405190151581526020016101c7565b610206610201366004611686565b610438565b6040516101c7919061169f565b6101bd60085481565b61022f61022a366004611686565b61049a565b6040516101c79190611733565b61024f61024a366004611686565b610551565b005b61024f61025f3660046117d4565b6105b7565b6101bd600a5481565b61024f61085e565b61020661028336600461188f565b610892565b60035460ff166101e3565b6101bd6102a136600461161f565b600460209081526000928352604080842090915290825290205481565b61024f6102cc366004611686565b6109c8565b61024f6102df366004611686565b610a25565b61024f610a82565b6006546102ff906001600160a01b031681565b6040516001600160a01b0390911681526020016101c7565b6101bd60095481565b61024f61032e3660046118fb565b610ab4565b6007546102ff906001600160a01b031681565b61024f610354366004611937565b610b20565b610206610367366004611983565b610ba3565b61024f61037a36600461161f565b610c52565b61024f61038d36600461199e565b610dc2565b61022f6103a0366004611686565b610f19565b6101e36103b33660046119ef565b600260209081526000928352604080842090915290825290205460ff1681565b61024f6103e1366004611a22565b610fd1565b60006301ffc9a760e01b6001600160e01b0319831614806104175750636cdb3d1360e11b6001600160e01b03198316145b8061043257506303a24d0760e21b6001600160e01b03198316145b92915050565b60008181526005602090815260409182902080548351818402810184019094528084526060939283018282801561048e57602002820191906000526020600020905b81548152602001906001019080831161047a575b50505050509050919050565b6060610432600760009054906101000a90046001600160a01b03166001600160a01b031663eac989f86040518163ffffffff1660e01b8152600401600060405180830381865afa1580156104f2573d6000803e3d6000fd5b505050506040513d6000823e601f3d908101601f1916820160405261051a9190810190611ab0565b61054c610526306111cf565b61054c604051806040016040528060018152602001602f60f81b81525061054c886111f3565b611237565b6006546001600160a01b031633146105845760405162461bcd60e51b815260040161057b90611b5d565b60405180910390fd5b600981905560405181907f4209d380f6ad528ad73f0ba1b57d33d17ce2b55c82727c3cf3ea4fe93db509e990600090a250565b8483146105f85760405162461bcd60e51b815260206004820152600f60248201526e0988a9c8ea890be9a92a69a82a8869608b1b604482015260640161057b565b336001600160a01b038916148061063257506001600160a01b038816600090815260026020908152604080832033845290915290205460ff165b61066f5760405162461bcd60e51b815260206004820152600e60248201526d1393d517d055551213d49256915160921b604482015260640161057b565b60008060005b8781101561072e5788888281811061068f5761068f611b83565b9050602002013592508686828181106106aa576106aa611b83565b6001600160a01b038e166000908152600160209081526040808320898452825282208054939091029490940135955085939250906106e9908490611baf565b90915550506001600160a01b038a16600090815260016020908152604080832086845290915281208054849290610721908490611bc2565b9091555050600101610675565b50886001600160a01b03168a6001600160a01b0316336001600160a01b03167f4a39dc06d4c0dbc64b70af90fd698a233a518aa5d07e595d983b8c0526c8f7fb8b8b8b8b6040516107829493929190611c07565b60405180910390a46001600160a01b0389163b156108295760405163bc197c8160e01b808252906001600160a01b038b169063bc197c81906107d69033908f908e908e908e908e908e908e90600401611c57565b6020604051808303816000875af11580156107f5573d6000803e3d6000fd5b505050506040513d601f19601f820116820180604052508101906108199190611cbb565b6001600160e01b03191614610836565b6001600160a01b03891615155b6108525760405162461bcd60e51b815260040161057b90611cd8565b50505050505050505050565b6006546001600160a01b031633146108885760405162461bcd60e51b815260040161057b90611b5d565b610890611293565b565b60608382146108d55760405162461bcd60e51b815260206004820152600f60248201526e0988a9c8ea890be9a92a69a82a8869608b1b604482015260640161057b565b8367ffffffffffffffff8111156108ee576108ee611a9a565b604051908082528060200260200182016040528015610917578160200160208202803683370190505b50905060005b848110156109bf576001600087878481811061093b5761093b611b83565b90506020020160208101906109509190611983565b6001600160a01b03166001600160a01b03168152602001908152602001600020600085858481811061098457610984611b83565b905060200201358152602001908152602001600020548282815181106109ac576109ac611b83565b602090810291909101015260010161091d565b50949350505050565b6006546001600160a01b031633146109f25760405162461bcd60e51b815260040161057b90611b5d565b600a81905560405181907f914960aef5e033ce5cae8a7992d4b7a6f0f9741227b66acb67c605b7019f8a4690600090a250565b6006546001600160a01b03163314610a4f5760405162461bcd60e51b815260040161057b90611b5d565b600881905560405181907f280fdbfa541c35868adeb56b71fe1230342ad3fcb599b74a05e1ce672c0fdab790600090a250565b6006546001600160a01b03163314610aac5760405162461bcd60e51b815260040161057b90611b5d565b6108906112e5565b3360008181526002602090815260408083206001600160a01b03871680855290835292819020805460ff191686151590811790915590519081529192917f17307eab39ab6107e8899845ad3d59bd9653f200f220920489ca2b5937696c31910160405180910390a35050565b6006546001600160a01b03163314610b4a5760405162461bcd60e51b815260040161057b90611b5d565b6000838152600560205260409020610b639083836115a3565b50827f53e168435ac8a7603a526b1197cfc709d5c59cd64a97469dd897e6907f9944a88383604051610b96929190611d02565b60405180910390a2505050565b6009546060908067ffffffffffffffff811115610bc257610bc2611a9a565b604051908082528060200260200182016040528015610beb578160200160208202803683370190505b50915060005b818114610c4b576001600160a01b03841660009081526001602090815260408083208484529091529020548351849083908110610c3057610c30611b83565b6020908102919091010152610c4481611d1e565b9050610bf1565b5050919050565b600054610100900460ff1615808015610c725750600054600160ff909116105b80610c8c5750303b158015610c8c575060005460ff166001145b610cef5760405162461bcd60e51b815260206004820152602e60248201527f496e697469616c697a61626c653a20636f6e747261637420697320616c72656160448201526d191e481a5b9a5d1a585b1a5e995960921b606482015260840161057b565b6000805460ff191660011790558015610d12576000805461ff0019166101001790555b600680546001600160a01b0319166001600160a01b0385169081179091556040516000907f8be0079c531659141344cd1fd0a4f28419497f9722a3daafe3b4186f6b6457e0908290a3600780546001600160a01b03191633179055600882905560206009558015610dbd576000805461ff0019169055604051600181527f7f26b83ff96e1f2b6a682f133852f6798a09c465da95921460cefb38474024989060200160405180910390a15b505050565b610dca611322565b8160095411610dec57604051632e731f5560e21b815260040160405180910390fd5b600854421115610e0f5760405163a8ab2d2560e01b815260040160405180910390fd5b604080513360208201529081018390526060810182905260009060800160408051601f19818403018152828252805160209182012090830152016040516020818303038152906040528051906020012090506000610e718686600a5485611368565b905080610e9157604051630d453fcd60e31b815260040160405180910390fd5b336000908152600460209081526040808320878452909152902054838110610ecf5760405163598b3dfd60e11b81526004810185905260240161057b565b3360008181526004602090815260408083208984529091529020859055610f109086610efb8488611baf565b604051806020016040528060008152506113a2565b50505050505050565b6060610432600760009054906101000a90046001600160a01b03166001600160a01b031663eac989f86040518163ffffffff1660e01b8152600401600060405180830381865afa158015610f71573d6000803e3d6000fd5b505050506040513d6000823e601f3d908101601f19168201604052610f999190810190611ab0565b61054c610fa5306111cf565b61054c604051806040016040528060078152602001662f726f6c65732f60c81b81525061054c886111f3565b336001600160a01b038716148061100b57506001600160a01b038616600090815260026020908152604080832033845290915290205460ff165b6110485760405162461bcd60e51b815260206004820152600e60248201526d1393d517d055551213d49256915160921b604482015260640161057b565b6001600160a01b03861660009081526001602090815260408083208784529091528120805485929061107b908490611baf565b90915550506001600160a01b0385166000908152600160209081526040808320878452909152812080548592906110b3908490611bc2565b909155505060408051858152602081018590526001600160a01b03808816929089169133917fc3d58168c5ae7397731d063d5bbf3d657854427343f4c083240f7aacaa2d0f62910160405180910390a46001600160a01b0385163b1561119e5760405163f23a6e6160e01b808252906001600160a01b0387169063f23a6e619061114b9033908b908a908a908a908a90600401611d37565b6020604051808303816000875af115801561116a573d6000803e3d6000fd5b505050506040513d601f19601f8201168201806040525081019061118e9190611cbb565b6001600160e01b031916146111ab565b6001600160a01b03851615155b6111c75760405162461bcd60e51b815260040161057b90611cd8565b505050505050565b60606111da826114ec565b8051613078825260020160011990910190815292915050565b60606080604051019050602081016040526000815280600019835b928101926030600a8206018453600a90048061120e575050819003601f19909101908152919050565b6040518251601f19906020810182165b858101518482015282018061124757508351855184018360208301165b86810151828201528401806112645750506000910183810160208101929092528352603f011660405292915050565b61129b61155a565b6003805460ff191690557f5db9ee0a495bf2e6ff9c91a7834c1ba4fdd244a5e8aa4e537bd38aeae4b073aa335b6040516001600160a01b03909116815260200160405180910390a1565b6112ed611322565b6003805460ff191660011790557f62e78cea01bee320cd4e420270b5ea74000d11b0c9f74754ebdbfc544b05a2586112c83390565b60035460ff16156108905760405162461bcd60e51b815260206004820152601060248201526f14185d5cd8589b194e881c185d5cd95960821b604482015260640161057b565b6000831561139a578360051b8501855b803580851160051b948552602094851852604060002093018181106113785750505b501492915050565b6001600160a01b0384166000908152600160209081526040808320868452909152812080548492906113d5908490611bc2565b909155505060408051848152602081018490526001600160a01b0386169160009133917fc3d58168c5ae7397731d063d5bbf3d657854427343f4c083240f7aacaa2d0f62910160405180910390a46001600160a01b0384163b156114bd5760405163f23a6e6160e01b808252906001600160a01b0386169063f23a6e619061146a903390600090899089908990600401611d7e565b6020604051808303816000875af1158015611489573d6000803e3d6000fd5b505050506040513d601f19601f820116820180604052508101906114ad9190611cbb565b6001600160e01b031916146114ca565b6001600160a01b03841615155b6114e65760405162461bcd60e51b815260040161057b90611cd8565b50505050565b60606040519050608081016040526f30313233343536373839616263646566600f526002810190506028815260208101600060288201528260601b925060005b808101820184821a600f81165160018301538060041c518253505060018101906012190115610c4b5761152c565b60035460ff166108905760405162461bcd60e51b815260206004820152601460248201527314185d5cd8589b194e881b9bdd081c185d5cd95960621b604482015260640161057b565b8280548282559060005260206000209081019282156115de579160200282015b828111156115de5782358255916020019190600101906115c3565b506115ea9291506115ee565b5090565b5b808211156115ea57600081556001016115ef565b80356001600160a01b038116811461161a57600080fd5b919050565b6000806040838503121561163257600080fd5b61163b83611603565b946020939093013593505050565b6001600160e01b03198116811461165f57600080fd5b50565b60006020828403121561167457600080fd5b813561167f81611649565b9392505050565b60006020828403121561169857600080fd5b5035919050565b6020808252825182820181905260009190848201906040850190845b818110156116d7578351835292840192918401916001016116bb565b50909695505050505050565b60005b838110156116fe5781810151838201526020016116e6565b50506000910152565b6000815180845261171f8160208601602086016116e3565b601f01601f19169290920160200192915050565b60208152600061167f6020830184611707565b60008083601f84011261175857600080fd5b50813567ffffffffffffffff81111561177057600080fd5b6020830191508360208260051b850101111561178b57600080fd5b9250929050565b60008083601f8401126117a457600080fd5b50813567ffffffffffffffff8111156117bc57600080fd5b60208301915083602082850101111561178b57600080fd5b60008060008060008060008060a0898b0312156117f057600080fd5b6117f989611603565b975061180760208a01611603565b9650604089013567ffffffffffffffff8082111561182457600080fd5b6118308c838d01611746565b909850965060608b013591508082111561184957600080fd5b6118558c838d01611746565b909650945060808b013591508082111561186e57600080fd5b5061187b8b828c01611792565b999c989b5096995094979396929594505050565b600080600080604085870312156118a557600080fd5b843567ffffffffffffffff808211156118bd57600080fd5b6118c988838901611746565b909650945060208701359150808211156118e257600080fd5b506118ef87828801611746565b95989497509550505050565b6000806040838503121561190e57600080fd5b61191783611603565b91506020830135801515811461192c57600080fd5b809150509250929050565b60008060006040848603121561194c57600080fd5b83359250602084013567ffffffffffffffff81111561196a57600080fd5b61197686828701611746565b9497909650939450505050565b60006020828403121561199557600080fd5b61167f82611603565b600080600080606085870312156119b457600080fd5b843567ffffffffffffffff8111156119cb57600080fd5b6119d787828801611746565b90989097506020870135966040013595509350505050565b60008060408385031215611a0257600080fd5b611a0b83611603565b9150611a1960208401611603565b90509250929050565b60008060008060008060a08789031215611a3b57600080fd5b611a4487611603565b9550611a5260208801611603565b94506040870135935060608701359250608087013567ffffffffffffffff811115611a7c57600080fd5b611a8889828a01611792565b979a9699509497509295939492505050565b634e487b7160e01b600052604160045260246000fd5b600060208284031215611ac257600080fd5b815167ffffffffffffffff80821115611ada57600080fd5b818401915084601f830112611aee57600080fd5b815181811115611b0057611b00611a9a565b604051601f8201601f19908116603f01168101908382118183101715611b2857611b28611a9a565b81604052828152876020848701011115611b4157600080fd5b611b528360208301602088016116e3565b979650505050505050565b6020808252600c908201526b15539055551213d49256915160a21b604082015260600190565b634e487b7160e01b600052603260045260246000fd5b634e487b7160e01b600052601160045260246000fd5b8181038181111561043257610432611b99565b8082018082111561043257610432611b99565b81835260006001600160fb1b03831115611bee57600080fd5b8260051b80836020870137939093016020019392505050565b604081526000611c1b604083018688611bd5565b8281036020840152611b52818587611bd5565b81835281816020850137506000828201602090810191909152601f909101601f19169091010190565b6001600160a01b0389811682528816602082015260a060408201819052600090611c84908301888a611bd5565b8281036060840152611c97818789611bd5565b90508281036080840152611cac818587611c2e565b9b9a5050505050505050505050565b600060208284031215611ccd57600080fd5b815161167f81611649565b60208082526010908201526f155394d0519157d49150d2541251539560821b604082015260600190565b602081526000611d16602083018486611bd5565b949350505050565b600060018201611d3057611d30611b99565b5060010190565b6001600160a01b03878116825286166020820152604081018590526060810184905260a060808201819052600090611d729083018486611c2e565b98975050505050505050565b6001600160a01b03868116825285166020820152604081018490526060810183905260a060808201819052600090611b529083018461170756fea2646970667358221220c479282b463b66fe1bc315049f5961bb5728f244c920346f3a6bc2a1297b7acb64736f6c63430008120033",
			"opcodes": "PUSH1 0x80 PUSH1 0x40 MSTORE CALLVALUE DUP1 ISZERO PUSH2 0x10 JUMPI PUSH1 0x0 DUP1 REVERT JUMPDEST POP PUSH1 0x3 DUP1 SLOAD PUSH1 0xFF NOT AND SWAP1 SSTORE PUSH2 0x1DEE DUP1 PUSH2 0x2A PUSH1 0x0 CODECOPY PUSH1 0x0 RETURN INVALID PUSH1 0x80 PUSH1 0x40 MSTORE CALLVALUE DUP1 ISZERO PUSH2 0x10 JUMPI PUSH1 0x0 DUP1 REVERT JUMPDEST POP PUSH1 0x4 CALLDATASIZE LT PUSH2 0x18D JUMPI PUSH1 0x0 CALLDATALOAD PUSH1 0xE0 SHR DUP1 PUSH4 0x82D95DF5 GT PUSH2 0xDE JUMPI DUP1 PUSH4 0xC60C5E77 GT PUSH2 0x97 JUMPI DUP1 PUSH4 0xD4A6DA09 GT PUSH2 0x71 JUMPI DUP1 PUSH4 0xD4A6DA09 EQ PUSH2 0x37F JUMPI DUP1 PUSH4 0xDC023D97 EQ PUSH2 0x392 JUMPI DUP1 PUSH4 0xE985E9C5 EQ PUSH2 0x3A5 JUMPI DUP1 PUSH4 0xF242432A EQ PUSH2 0x3D3 JUMPI PUSH1 0x0 DUP1 REVERT JUMPDEST DUP1 PUSH4 0xC60C5E77 EQ PUSH2 0x346 JUMPI DUP1 PUSH4 0xC84AAE17 EQ PUSH2 0x359 JUMPI DUP1 PUSH4 0xCD6DC687 EQ PUSH2 0x36C JUMPI PUSH1 0x0 DUP1 REVERT JUMPDEST DUP1 PUSH4 0x82D95DF5 EQ PUSH2 0x2D1 JUMPI DUP1 PUSH4 0x8456CB59 EQ PUSH2 0x2E4 JUMPI DUP1 PUSH4 0x8DA5CB5B EQ PUSH2 0x2EC JUMPI DUP1 PUSH4 0x91BA317A EQ PUSH2 0x317 JUMPI DUP1 PUSH4 0xA22CB465 EQ PUSH2 0x320 JUMPI DUP1 PUSH4 0xC45A0155 EQ PUSH2 0x333 JUMPI PUSH1 0x0 DUP1 REVERT JUMPDEST DUP1 PUSH4 0x2EB2C2D6 GT PUSH2 0x14B JUMPI DUP1 PUSH4 0x4E1273F4 GT PUSH2 0x125 JUMPI DUP1 PUSH4 0x4E1273F4 EQ PUSH2 0x275 JUMPI DUP1 PUSH4 0x5C975ABB EQ PUSH2 0x288 JUMPI DUP1 PUSH4 0x734EE5FC EQ PUSH2 0x293 JUMPI DUP1 PUSH4 0x7CB64759 EQ PUSH2 0x2BE JUMPI PUSH1 0x0 DUP1 REVERT JUMPDEST DUP1 PUSH4 0x2EB2C2D6 EQ PUSH2 0x251 JUMPI DUP1 PUSH4 0x2EB4A7AB EQ PUSH2 0x264 JUMPI DUP1 PUSH4 0x3F4BA83A EQ PUSH2 0x26D JUMPI PUSH1 0x0 DUP1 REVERT JUMPDEST DUP1 PUSH3 0xFDD58E EQ PUSH2 0x192 JUMPI DUP1 PUSH4 0x1FFC9A7 EQ PUSH2 0x1D0 JUMPI DUP1 PUSH4 0x71D709F EQ PUSH2 0x1F3 JUMPI DUP1 PUSH4 0xB97BC86 EQ PUSH2 0x213 JUMPI DUP1 PUSH4 0xE89341C EQ PUSH2 0x21C JUMPI DUP1 PUSH4 0x202FCBBD EQ PUSH2 0x23C JUMPI JUMPDEST PUSH1 0x0 DUP1 REVERT JUMPDEST PUSH2 0x1BD PUSH2 0x1A0 CALLDATASIZE PUSH1 0x4 PUSH2 0x161F JUMP JUMPDEST PUSH1 0x1 PUSH1 0x20 SWAP1 DUP2 MSTORE PUSH1 0x0 SWAP3 DUP4 MSTORE PUSH1 0x40 DUP1 DUP5 KECCAK256 SWAP1 SWAP2 MSTORE SWAP1 DUP3 MSTORE SWAP1 KECCAK256 SLOAD DUP2 JUMP JUMPDEST PUSH1 0x40 MLOAD SWAP1 DUP2 MSTORE PUSH1 0x20 ADD JUMPDEST PUSH1 0x40 MLOAD DUP1 SWAP2 SUB SWAP1 RETURN JUMPDEST PUSH2 0x1E3 PUSH2 0x1DE CALLDATASIZE PUSH1 0x4 PUSH2 0x1662 JUMP JUMPDEST PUSH2 0x3E6 JUMP JUMPDEST PUSH1 0x40 MLOAD SWAP1 ISZERO ISZERO DUP2 MSTORE PUSH1 0x20 ADD PUSH2 0x1C7 JUMP JUMPDEST PUSH2 0x206 PUSH2 0x201 CALLDATASIZE PUSH1 0x4 PUSH2 0x1686 JUMP JUMPDEST PUSH2 0x438 JUMP JUMPDEST PUSH1 0x40 MLOAD PUSH2 0x1C7 SWAP2 SWAP1 PUSH2 0x169F JUMP JUMPDEST PUSH2 0x1BD PUSH1 0x8 SLOAD DUP2 JUMP JUMPDEST PUSH2 0x22F PUSH2 0x22A CALLDATASIZE PUSH1 0x4 PUSH2 0x1686 JUMP JUMPDEST PUSH2 0x49A JUMP JUMPDEST PUSH1 0x40 MLOAD PUSH2 0x1C7 SWAP2 SWAP1 PUSH2 0x1733 JUMP JUMPDEST PUSH2 0x24F PUSH2 0x24A CALLDATASIZE PUSH1 0x4 PUSH2 0x1686 JUMP JUMPDEST PUSH2 0x551 JUMP JUMPDEST STOP JUMPDEST PUSH2 0x24F PUSH2 0x25F CALLDATASIZE PUSH1 0x4 PUSH2 0x17D4 JUMP JUMPDEST PUSH2 0x5B7 JUMP JUMPDEST PUSH2 0x1BD PUSH1 0xA SLOAD DUP2 JUMP JUMPDEST PUSH2 0x24F PUSH2 0x85E JUMP JUMPDEST PUSH2 0x206 PUSH2 0x283 CALLDATASIZE PUSH1 0x4 PUSH2 0x188F JUMP JUMPDEST PUSH2 0x892 JUMP JUMPDEST PUSH1 0x3 SLOAD PUSH1 0xFF AND PUSH2 0x1E3 JUMP JUMPDEST PUSH2 0x1BD PUSH2 0x2A1 CALLDATASIZE PUSH1 0x4 PUSH2 0x161F JUMP JUMPDEST PUSH1 0x4 PUSH1 0x20 SWAP1 DUP2 MSTORE PUSH1 0x0 SWAP3 DUP4 MSTORE PUSH1 0x40 DUP1 DUP5 KECCAK256 SWAP1 SWAP2 MSTORE SWAP1 DUP3 MSTORE SWAP1 KECCAK256 SLOAD DUP2 JUMP JUMPDEST PUSH2 0x24F PUSH2 0x2CC CALLDATASIZE PUSH1 0x4 PUSH2 0x1686 JUMP JUMPDEST PUSH2 0x9C8 JUMP JUMPDEST PUSH2 0x24F PUSH2 0x2DF CALLDATASIZE PUSH1 0x4 PUSH2 0x1686 JUMP JUMPDEST PUSH2 0xA25 JUMP JUMPDEST PUSH2 0x24F PUSH2 0xA82 JUMP JUMPDEST PUSH1 0x6 SLOAD PUSH2 0x2FF SWAP1 PUSH1 0x1 PUSH1 0x1 PUSH1 0xA0 SHL SUB AND DUP2 JUMP JUMPDEST PUSH1 0x40 MLOAD PUSH1 0x1 PUSH1 0x1 PUSH1 0xA0 SHL SUB SWAP1 SWAP2 AND DUP2 MSTORE PUSH1 0x20 ADD PUSH2 0x1C7 JUMP JUMPDEST PUSH2 0x1BD PUSH1 0x9 SLOAD DUP2 JUMP JUMPDEST PUSH2 0x24F PUSH2 0x32E CALLDATASIZE PUSH1 0x4 PUSH2 0x18FB JUMP JUMPDEST PUSH2 0xAB4 JUMP JUMPDEST PUSH1 0x7 SLOAD PUSH2 0x2FF SWAP1 PUSH1 0x1 PUSH1 0x1 PUSH1 0xA0 SHL SUB AND DUP2 JUMP JUMPDEST PUSH2 0x24F PUSH2 0x354 CALLDATASIZE PUSH1 0x4 PUSH2 0x1937 JUMP JUMPDEST PUSH2 0xB20 JUMP JUMPDEST PUSH2 0x206 PUSH2 0x367 CALLDATASIZE PUSH1 0x4 PUSH2 0x1983 JUMP JUMPDEST PUSH2 0xBA3 JUMP JUMPDEST PUSH2 0x24F PUSH2 0x37A CALLDATASIZE PUSH1 0x4 PUSH2 0x161F JUMP JUMPDEST PUSH2 0xC52 JUMP JUMPDEST PUSH2 0x24F PUSH2 0x38D CALLDATASIZE PUSH1 0x4 PUSH2 0x199E JUMP JUMPDEST PUSH2 0xDC2 JUMP JUMPDEST PUSH2 0x22F PUSH2 0x3A0 CALLDATASIZE PUSH1 0x4 PUSH2 0x1686 JUMP JUMPDEST PUSH2 0xF19 JUMP JUMPDEST PUSH2 0x1E3 PUSH2 0x3B3 CALLDATASIZE PUSH1 0x4 PUSH2 0x19EF JUMP JUMPDEST PUSH1 0x2 PUSH1 0x20 SWAP1 DUP2 MSTORE PUSH1 0x0 SWAP3 DUP4 MSTORE PUSH1 0x40 DUP1 DUP5 KECCAK256 SWAP1 SWAP2 MSTORE SWAP1 DUP3 MSTORE SWAP1 KECCAK256 SLOAD PUSH1 0xFF AND DUP2 JUMP JUMPDEST PUSH2 0x24F PUSH2 0x3E1 CALLDATASIZE PUSH1 0x4 PUSH2 0x1A22 JUMP JUMPDEST PUSH2 0xFD1 JUMP JUMPDEST PUSH1 0x0 PUSH4 0x1FFC9A7 PUSH1 0xE0 SHL PUSH1 0x1 PUSH1 0x1 PUSH1 0xE0 SHL SUB NOT DUP4 AND EQ DUP1 PUSH2 0x417 JUMPI POP PUSH4 0x6CDB3D13 PUSH1 0xE1 SHL PUSH1 0x1 PUSH1 0x1 PUSH1 0xE0 SHL SUB NOT DUP4 AND EQ JUMPDEST DUP1 PUSH2 0x432 JUMPI POP PUSH4 0x3A24D07 PUSH1 0xE2 SHL PUSH1 0x1 PUSH1 0x1 PUSH1 0xE0 SHL SUB NOT DUP4 AND EQ JUMPDEST SWAP3 SWAP2 POP POP JUMP JUMPDEST PUSH1 0x0 DUP2 DUP2 MSTORE PUSH1 0x5 PUSH1 0x20 SWAP1 DUP2 MSTORE PUSH1 0x40 SWAP2 DUP3 SWAP1 KECCAK256 DUP1 SLOAD DUP4 MLOAD DUP2 DUP5 MUL DUP2 ADD DUP5 ADD SWAP1 SWAP5 MSTORE DUP1 DUP5 MSTORE PUSH1 0x60 SWAP4 SWAP3 DUP4 ADD DUP3 DUP3 DUP1 ISZERO PUSH2 0x48E JUMPI PUSH1 0x20 MUL DUP3 ADD SWAP2 SWAP1 PUSH1 0x0 MSTORE PUSH1 0x20 PUSH1 0x0 KECCAK256 SWAP1 JUMPDEST DUP2 SLOAD DUP2 MSTORE PUSH1 0x20 ADD SWAP1 PUSH1 0x1 ADD SWAP1 DUP1 DUP4 GT PUSH2 0x47A JUMPI JUMPDEST POP POP POP POP POP SWAP1 POP SWAP2 SWAP1 POP JUMP JUMPDEST PUSH1 0x60 PUSH2 0x432 PUSH1 0x7 PUSH1 0x0 SWAP1 SLOAD SWAP1 PUSH2 0x100 EXP SWAP1 DIV PUSH1 0x1 PUSH1 0x1 PUSH1 0xA0 SHL SUB AND PUSH1 0x1 PUSH1 0x1 PUSH1 0xA0 SHL SUB AND PUSH4 0xEAC989F8 PUSH1 0x40 MLOAD DUP2 PUSH4 0xFFFFFFFF AND PUSH1 0xE0 SHL DUP2 MSTORE PUSH1 0x4 ADD PUSH1 0x0 PUSH1 0x40 MLOAD DUP1 DUP4 SUB DUP2 DUP7 GAS STATICCALL ISZERO DUP1 ISZERO PUSH2 0x4F2 JUMPI RETURNDATASIZE PUSH1 0x0 DUP1 RETURNDATACOPY RETURNDATASIZE PUSH1 0x0 REVERT JUMPDEST POP POP POP POP PUSH1 0x40 MLOAD RETURNDATASIZE PUSH1 0x0 DUP3 RETURNDATACOPY PUSH1 0x1F RETURNDATASIZE SWAP1 DUP2 ADD PUSH1 0x1F NOT AND DUP3 ADD PUSH1 0x40 MSTORE PUSH2 0x51A SWAP2 SWAP1 DUP2 ADD SWAP1 PUSH2 0x1AB0 JUMP JUMPDEST PUSH2 0x54C PUSH2 0x526 ADDRESS PUSH2 0x11CF JUMP JUMPDEST PUSH2 0x54C PUSH1 0x40 MLOAD DUP1 PUSH1 0x40 ADD PUSH1 0x40 MSTORE DUP1 PUSH1 0x1 DUP2 MSTORE PUSH1 0x20 ADD PUSH1 0x2F PUSH1 0xF8 SHL DUP2 MSTORE POP PUSH2 0x54C DUP9 PUSH2 0x11F3 JUMP JUMPDEST PUSH2 0x1237 JUMP JUMPDEST PUSH1 0x6 SLOAD PUSH1 0x1 PUSH1 0x1 PUSH1 0xA0 SHL SUB AND CALLER EQ PUSH2 0x584 JUMPI PUSH1 0x40 MLOAD PUSH3 0x461BCD PUSH1 0xE5 SHL DUP2 MSTORE PUSH1 0x4 ADD PUSH2 0x57B SWAP1 PUSH2 0x1B5D JUMP JUMPDEST PUSH1 0x40 MLOAD DUP1 SWAP2 SUB SWAP1 REVERT JUMPDEST PUSH1 0x9 DUP2 SWAP1 SSTORE PUSH1 0x40 MLOAD DUP2 SWAP1 PUSH32 0x4209D380F6AD528AD73F0BA1B57D33D17CE2B55C82727C3CF3EA4FE93DB509E9 SWAP1 PUSH1 0x0 SWAP1 LOG2 POP JUMP JUMPDEST DUP5 DUP4 EQ PUSH2 0x5F8 JUMPI PUSH1 0x40 MLOAD PUSH3 0x461BCD PUSH1 0xE5 SHL DUP2 MSTORE PUSH1 0x20 PUSH1 0x4 DUP3 ADD MSTORE PUSH1 0xF PUSH1 0x24 DUP3 ADD MSTORE PUSH15 0x988A9C8EA890BE9A92A69A82A8869 PUSH1 0x8B SHL PUSH1 0x44 DUP3 ADD MSTORE PUSH1 0x64 ADD PUSH2 0x57B JUMP JUMPDEST CALLER PUSH1 0x1 PUSH1 0x1 PUSH1 0xA0 SHL SUB DUP10 AND EQ DUP1 PUSH2 0x632 JUMPI POP PUSH1 0x1 PUSH1 0x1 PUSH1 0xA0 SHL SUB DUP9 AND PUSH1 0x0 SWAP1 DUP2 MSTORE PUSH1 0x2 PUSH1 0x20 SWAP1 DUP2 MSTORE PUSH1 0x40 DUP1 DUP4 KECCAK256 CALLER DUP5 MSTORE SWAP1 SWAP2 MSTORE SWAP1 KECCAK256 SLOAD PUSH1 0xFF AND JUMPDEST PUSH2 0x66F JUMPI PUSH1 0x40 MLOAD PUSH3 0x461BCD PUSH1 0xE5 SHL DUP2 MSTORE PUSH1 0x20 PUSH1 0x4 DUP3 ADD MSTORE PUSH1 0xE PUSH1 0x24 DUP3 ADD MSTORE PUSH14 0x1393D517D055551213D492569151 PUSH1 0x92 SHL PUSH1 0x44 DUP3 ADD MSTORE PUSH1 0x64 ADD PUSH2 0x57B JUMP JUMPDEST PUSH1 0x0 DUP1 PUSH1 0x0 JUMPDEST DUP8 DUP2 LT ISZERO PUSH2 0x72E JUMPI DUP9 DUP9 DUP3 DUP2 DUP2 LT PUSH2 0x68F JUMPI PUSH2 0x68F PUSH2 0x1B83 JUMP JUMPDEST SWAP1 POP PUSH1 0x20 MUL ADD CALLDATALOAD SWAP3 POP DUP7 DUP7 DUP3 DUP2 DUP2 LT PUSH2 0x6AA JUMPI PUSH2 0x6AA PUSH2 0x1B83 JUMP JUMPDEST PUSH1 0x1 PUSH1 0x1 PUSH1 0xA0 SHL SUB DUP15 AND PUSH1 0x0 SWAP1 DUP2 MSTORE PUSH1 0x1 PUSH1 0x20 SWAP1 DUP2 MSTORE PUSH1 0x40 DUP1 DUP4 KECCAK256 DUP10 DUP5 MSTORE DUP3 MSTORE DUP3 KECCAK256 DUP1 SLOAD SWAP4 SWAP1 SWAP2 MUL SWAP5 SWAP1 SWAP5 ADD CALLDATALOAD SWAP6 POP DUP6 SWAP4 SWAP3 POP SWAP1 PUSH2 0x6E9 SWAP1 DUP5 SWAP1 PUSH2 0x1BAF JUMP JUMPDEST SWAP1 SWAP2 SSTORE POP POP PUSH1 0x1 PUSH1 0x1 PUSH1 0xA0 SHL SUB DUP11 AND PUSH1 0x0 SWAP1 DUP2 MSTORE PUSH1 0x1 PUSH1 0x20 SWAP1 DUP2 MSTORE PUSH1 0x40 DUP1 DUP4 KECCAK256 DUP7 DUP5 MSTORE SWAP1 SWAP2 MSTORE DUP2 KECCAK256 DUP1 SLOAD DUP5 SWAP3 SWAP1 PUSH2 0x721 SWAP1 DUP5 SWAP1 PUSH2 0x1BC2 JUMP JUMPDEST SWAP1 SWAP2 SSTORE POP POP PUSH1 0x1 ADD PUSH2 0x675 JUMP JUMPDEST POP DUP9 PUSH1 0x1 PUSH1 0x1 PUSH1 0xA0 SHL SUB AND DUP11 PUSH1 0x1 PUSH1 0x1 PUSH1 0xA0 SHL SUB AND CALLER PUSH1 0x1 PUSH1 0x1 PUSH1 0xA0 SHL SUB AND PUSH32 0x4A39DC06D4C0DBC64B70AF90FD698A233A518AA5D07E595D983B8C0526C8F7FB DUP12 DUP12 DUP12 DUP12 PUSH1 0x40 MLOAD PUSH2 0x782 SWAP5 SWAP4 SWAP3 SWAP2 SWAP1 PUSH2 0x1C07 JUMP JUMPDEST PUSH1 0x40 MLOAD DUP1 SWAP2 SUB SWAP1 LOG4 PUSH1 0x1 PUSH1 0x1 PUSH1 0xA0 SHL SUB DUP10 AND EXTCODESIZE ISZERO PUSH2 0x829 JUMPI PUSH1 0x40 MLOAD PUSH4 0xBC197C81 PUSH1 0xE0 SHL DUP1 DUP3 MSTORE SWAP1 PUSH1 0x1 PUSH1 0x1 PUSH1 0xA0 SHL SUB DUP12 AND SWAP1 PUSH4 0xBC197C81 SWAP1 PUSH2 0x7D6 SWAP1 CALLER SWAP1 DUP16 SWAP1 DUP15 SWAP1 DUP15 SWAP1 DUP15 SWAP1 DUP15 SWAP1 DUP15 SWAP1 DUP15 SWAP1 PUSH1 0x4 ADD PUSH2 0x1C57 JUMP JUMPDEST PUSH1 0x20 PUSH1 0x40 MLOAD DUP1 DUP4 SUB DUP2 PUSH1 0x0 DUP8 GAS CALL ISZERO DUP1 ISZERO PUSH2 0x7F5 JUMPI RETURNDATASIZE PUSH1 0x0 DUP1 RETURNDATACOPY RETURNDATASIZE PUSH1 0x0 REVERT JUMPDEST POP POP POP POP PUSH1 0x40 MLOAD RETURNDATASIZE PUSH1 0x1F NOT PUSH1 0x1F DUP3 ADD AND DUP3 ADD DUP1 PUSH1 0x40 MSTORE POP DUP2 ADD SWAP1 PUSH2 0x819 SWAP2 SWAP1 PUSH2 0x1CBB JUMP JUMPDEST PUSH1 0x1 PUSH1 0x1 PUSH1 0xE0 SHL SUB NOT AND EQ PUSH2 0x836 JUMP JUMPDEST PUSH1 0x1 PUSH1 0x1 PUSH1 0xA0 SHL SUB DUP10 AND ISZERO ISZERO JUMPDEST PUSH2 0x852 JUMPI PUSH1 0x40 MLOAD PUSH3 0x461BCD PUSH1 0xE5 SHL DUP2 MSTORE PUSH1 0x4 ADD PUSH2 0x57B SWAP1 PUSH2 0x1CD8 JUMP JUMPDEST POP POP POP POP POP POP POP POP POP POP JUMP JUMPDEST PUSH1 0x6 SLOAD PUSH1 0x1 PUSH1 0x1 PUSH1 0xA0 SHL SUB AND CALLER EQ PUSH2 0x888 JUMPI PUSH1 0x40 MLOAD PUSH3 0x461BCD PUSH1 0xE5 SHL DUP2 MSTORE PUSH1 0x4 ADD PUSH2 0x57B SWAP1 PUSH2 0x1B5D JUMP JUMPDEST PUSH2 0x890 PUSH2 0x1293 JUMP JUMPDEST JUMP JUMPDEST PUSH1 0x60 DUP4 DUP3 EQ PUSH2 0x8D5 JUMPI PUSH1 0x40 MLOAD PUSH3 0x461BCD PUSH1 0xE5 SHL DUP2 MSTORE PUSH1 0x20 PUSH1 0x4 DUP3 ADD MSTORE PUSH1 0xF PUSH1 0x24 DUP3 ADD MSTORE PUSH15 0x988A9C8EA890BE9A92A69A82A8869 PUSH1 0x8B SHL PUSH1 0x44 DUP3 ADD MSTORE PUSH1 0x64 ADD PUSH2 0x57B JUMP JUMPDEST DUP4 PUSH8 0xFFFFFFFFFFFFFFFF DUP2 GT ISZERO PUSH2 0x8EE JUMPI PUSH2 0x8EE PUSH2 0x1A9A JUMP JUMPDEST PUSH1 0x40 MLOAD SWAP1 DUP1 DUP3 MSTORE DUP1 PUSH1 0x20 MUL PUSH1 0x20 ADD DUP3 ADD PUSH1 0x40 MSTORE DUP1 ISZERO PUSH2 0x917 JUMPI DUP2 PUSH1 0x20 ADD PUSH1 0x20 DUP3 MUL DUP1 CALLDATASIZE DUP4 CALLDATACOPY ADD SWAP1 POP JUMPDEST POP SWAP1 POP PUSH1 0x0 JUMPDEST DUP5 DUP2 LT ISZERO PUSH2 0x9BF JUMPI PUSH1 0x1 PUSH1 0x0 DUP8 DUP8 DUP5 DUP2 DUP2 LT PUSH2 0x93B JUMPI PUSH2 0x93B PUSH2 0x1B83 JUMP JUMPDEST SWAP1 POP PUSH1 0x20 MUL ADD PUSH1 0x20 DUP2 ADD SWAP1 PUSH2 0x950 SWAP2 SWAP1 PUSH2 0x1983 JUMP JUMPDEST PUSH1 0x1 PUSH1 0x1 PUSH1 0xA0 SHL SUB AND PUSH1 0x1 PUSH1 0x1 PUSH1 0xA0 SHL SUB AND DUP2 MSTORE PUSH1 0x20 ADD SWAP1 DUP2 MSTORE PUSH1 0x20 ADD PUSH1 0x0 KECCAK256 PUSH1 0x0 DUP6 DUP6 DUP5 DUP2 DUP2 LT PUSH2 0x984 JUMPI PUSH2 0x984 PUSH2 0x1B83 JUMP JUMPDEST SWAP1 POP PUSH1 0x20 MUL ADD CALLDATALOAD DUP2 MSTORE PUSH1 0x20 ADD SWAP1 DUP2 MSTORE PUSH1 0x20 ADD PUSH1 0x0 KECCAK256 SLOAD DUP3 DUP3 DUP2 MLOAD DUP2 LT PUSH2 0x9AC JUMPI PUSH2 0x9AC PUSH2 0x1B83 JUMP JUMPDEST PUSH1 0x20 SWAP1 DUP2 MUL SWAP2 SWAP1 SWAP2 ADD ADD MSTORE PUSH1 0x1 ADD PUSH2 0x91D JUMP JUMPDEST POP SWAP5 SWAP4 POP POP POP POP JUMP JUMPDEST PUSH1 0x6 SLOAD PUSH1 0x1 PUSH1 0x1 PUSH1 0xA0 SHL SUB AND CALLER EQ PUSH2 0x9F2 JUMPI PUSH1 0x40 MLOAD PUSH3 0x461BCD PUSH1 0xE5 SHL DUP2 MSTORE PUSH1 0x4 ADD PUSH2 0x57B SWAP1 PUSH2 0x1B5D JUMP JUMPDEST PUSH1 0xA DUP2 SWAP1 SSTORE PUSH1 0x40 MLOAD DUP2 SWAP1 PUSH32 0x914960AEF5E033CE5CAE8A7992D4B7A6F0F9741227B66ACB67C605B7019F8A46 SWAP1 PUSH1 0x0 SWAP1 LOG2 POP JUMP JUMPDEST PUSH1 0x6 SLOAD PUSH1 0x1 PUSH1 0x1 PUSH1 0xA0 SHL SUB AND CALLER EQ PUSH2 0xA4F JUMPI PUSH1 0x40 MLOAD PUSH3 0x461BCD PUSH1 0xE5 SHL DUP2 MSTORE PUSH1 0x4 ADD PUSH2 0x57B SWAP1 PUSH2 0x1B5D JUMP JUMPDEST PUSH1 0x8 DUP2 SWAP1 SSTORE PUSH1 0x40 MLOAD DUP2 SWAP1 PUSH32 0x280FDBFA541C35868ADEB56B71FE1230342AD3FCB599B74A05E1CE672C0FDAB7 SWAP1 PUSH1 0x0 SWAP1 LOG2 POP JUMP JUMPDEST PUSH1 0x6 SLOAD PUSH1 0x1 PUSH1 0x1 PUSH1 0xA0 SHL SUB AND CALLER EQ PUSH2 0xAAC JUMPI PUSH1 0x40 MLOAD PUSH3 0x461BCD PUSH1 0xE5 SHL DUP2 MSTORE PUSH1 0x4 ADD PUSH2 0x57B SWAP1 PUSH2 0x1B5D JUMP JUMPDEST PUSH2 0x890 PUSH2 0x12E5 JUMP JUMPDEST CALLER PUSH1 0x0 DUP2 DUP2 MSTORE PUSH1 0x2 PUSH1 0x20 SWAP1 DUP2 MSTORE PUSH1 0x40 DUP1 DUP4 KECCAK256 PUSH1 0x1 PUSH1 0x1 PUSH1 0xA0 SHL SUB DUP8 AND DUP1 DUP6 MSTORE SWAP1 DUP4 MSTORE SWAP3 DUP2 SWAP1 KECCAK256 DUP1 SLOAD PUSH1 0xFF NOT AND DUP7 ISZERO ISZERO SWAP1 DUP2 OR SWAP1 SWAP2 SSTORE SWAP1 MLOAD SWAP1 DUP2 MSTORE SWAP2 SWAP3 SWAP2 PUSH32 0x17307EAB39AB6107E8899845AD3D59BD9653F200F220920489CA2B5937696C31 SWAP2 ADD PUSH1 0x40 MLOAD DUP1 SWAP2 SUB SWAP1 LOG3 POP POP JUMP JUMPDEST PUSH1 0x6 SLOAD PUSH1 0x1 PUSH1 0x1 PUSH1 0xA0 SHL SUB AND CALLER EQ PUSH2 0xB4A JUMPI PUSH1 0x40 MLOAD PUSH3 0x461BCD PUSH1 0xE5 SHL DUP2 MSTORE PUSH1 0x4 ADD PUSH2 0x57B SWAP1 PUSH2 0x1B5D JUMP JUMPDEST PUSH1 0x0 DUP4 DUP2 MSTORE PUSH1 0x5 PUSH1 0x20 MSTORE PUSH1 0x40 SWAP1 KECCAK256 PUSH2 0xB63 SWAP1 DUP4 DUP4 PUSH2 0x15A3 JUMP JUMPDEST POP DUP3 PUSH32 0x53E168435AC8A7603A526B1197CFC709D5C59CD64A97469DD897E6907F9944A8 DUP4 DUP4 PUSH1 0x40 MLOAD PUSH2 0xB96 SWAP3 SWAP2 SWAP1 PUSH2 0x1D02 JUMP JUMPDEST PUSH1 0x40 MLOAD DUP1 SWAP2 SUB SWAP1 LOG2 POP POP POP JUMP JUMPDEST PUSH1 0x9 SLOAD PUSH1 0x60 SWAP1 DUP1 PUSH8 0xFFFFFFFFFFFFFFFF DUP2 GT ISZERO PUSH2 0xBC2 JUMPI PUSH2 0xBC2 PUSH2 0x1A9A JUMP JUMPDEST PUSH1 0x40 MLOAD SWAP1 DUP1 DUP3 MSTORE DUP1 PUSH1 0x20 MUL PUSH1 0x20 ADD DUP3 ADD PUSH1 0x40 MSTORE DUP1 ISZERO PUSH2 0xBEB JUMPI DUP2 PUSH1 0x20 ADD PUSH1 0x20 DUP3 MUL DUP1 CALLDATASIZE DUP4 CALLDATACOPY ADD SWAP1 POP JUMPDEST POP SWAP2 POP PUSH1 0x0 JUMPDEST DUP2 DUP2 EQ PUSH2 0xC4B JUMPI PUSH1 0x1 PUSH1 0x1 PUSH1 0xA0 SHL SUB DUP5 AND PUSH1 0x0 SWAP1 DUP2 MSTORE PUSH1 0x1 PUSH1 0x20 SWAP1 DUP2 MSTORE PUSH1 0x40 DUP1 DUP4 KECCAK256 DUP5 DUP5 MSTORE SWAP1 SWAP2 MSTORE SWAP1 KECCAK256 SLOAD DUP4 MLOAD DUP5 SWAP1 DUP4 SWAP1 DUP2 LT PUSH2 0xC30 JUMPI PUSH2 0xC30 PUSH2 0x1B83 JUMP JUMPDEST PUSH1 0x20 SWAP1 DUP2 MUL SWAP2 SWAP1 SWAP2 ADD ADD MSTORE PUSH2 0xC44 DUP2 PUSH2 0x1D1E JUMP JUMPDEST SWAP1 POP PUSH2 0xBF1 JUMP JUMPDEST POP POP SWAP2 SWAP1 POP JUMP JUMPDEST PUSH1 0x0 SLOAD PUSH2 0x100 SWAP1 DIV PUSH1 0xFF AND ISZERO DUP1 DUP1 ISZERO PUSH2 0xC72 JUMPI POP PUSH1 0x0 SLOAD PUSH1 0x1 PUSH1 0xFF SWAP1 SWAP2 AND LT JUMPDEST DUP1 PUSH2 0xC8C JUMPI POP ADDRESS EXTCODESIZE ISZERO DUP1 ISZERO PUSH2 0xC8C JUMPI POP PUSH1 0x0 SLOAD PUSH1 0xFF AND PUSH1 0x1 EQ JUMPDEST PUSH2 0xCEF JUMPI PUSH1 0x40 MLOAD PUSH3 0x461BCD PUSH1 0xE5 SHL DUP2 MSTORE PUSH1 0x20 PUSH1 0x4 DUP3 ADD MSTORE PUSH1 0x2E PUSH1 0x24 DUP3 ADD MSTORE PUSH32 0x496E697469616C697A61626C653A20636F6E747261637420697320616C726561 PUSH1 0x44 DUP3 ADD MSTORE PUSH14 0x191E481A5B9A5D1A585B1A5E9959 PUSH1 0x92 SHL PUSH1 0x64 DUP3 ADD MSTORE PUSH1 0x84 ADD PUSH2 0x57B JUMP JUMPDEST PUSH1 0x0 DUP1 SLOAD PUSH1 0xFF NOT AND PUSH1 0x1 OR SWAP1 SSTORE DUP1 ISZERO PUSH2 0xD12 JUMPI PUSH1 0x0 DUP1 SLOAD PUSH2 0xFF00 NOT AND PUSH2 0x100 OR SWAP1 SSTORE JUMPDEST PUSH1 0x6 DUP1 SLOAD PUSH1 0x1 PUSH1 0x1 PUSH1 0xA0 SHL SUB NOT AND PUSH1 0x1 PUSH1 0x1 PUSH1 0xA0 SHL SUB DUP6 AND SWAP1 DUP2 OR SWAP1 SWAP2 SSTORE PUSH1 0x40 MLOAD PUSH1 0x0 SWAP1 PUSH32 0x8BE0079C531659141344CD1FD0A4F28419497F9722A3DAAFE3B4186F6B6457E0 SWAP1 DUP3 SWAP1 LOG3 PUSH1 0x7 DUP1 SLOAD PUSH1 0x1 PUSH1 0x1 PUSH1 0xA0 SHL SUB NOT AND CALLER OR SWAP1 SSTORE PUSH1 0x8 DUP3 SWAP1 SSTORE PUSH1 0x20 PUSH1 0x9 SSTORE DUP1 ISZERO PUSH2 0xDBD JUMPI PUSH1 0x0 DUP1 SLOAD PUSH2 0xFF00 NOT AND SWAP1 SSTORE PUSH1 0x40 MLOAD PUSH1 0x1 DUP2 MSTORE PUSH32 0x7F26B83FF96E1F2B6A682F133852F6798A09C465DA95921460CEFB3847402498 SWAP1 PUSH1 0x20 ADD PUSH1 0x40 MLOAD DUP1 SWAP2 SUB SWAP1 LOG1 JUMPDEST POP POP POP JUMP JUMPDEST PUSH2 0xDCA PUSH2 0x1322 JUMP JUMPDEST DUP2 PUSH1 0x9 SLOAD GT PUSH2 0xDEC JUMPI PUSH1 0x40 MLOAD PUSH4 0x2E731F55 PUSH1 0xE2 SHL DUP2 MSTORE PUSH1 0x4 ADD PUSH1 0x40 MLOAD DUP1 SWAP2 SUB SWAP1 REVERT JUMPDEST PUSH1 0x8 SLOAD TIMESTAMP GT ISZERO PUSH2 0xE0F JUMPI PUSH1 0x40 MLOAD PUSH4 0xA8AB2D25 PUSH1 0xE0 SHL DUP2 MSTORE PUSH1 0x4 ADD PUSH1 0x40 MLOAD DUP1 SWAP2 SUB SWAP1 REVERT JUMPDEST PUSH1 0x40 DUP1 MLOAD CALLER PUSH1 0x20 DUP3 ADD MSTORE SWAP1 DUP2 ADD DUP4 SWAP1 MSTORE PUSH1 0x60 DUP2 ADD DUP3 SWAP1 MSTORE PUSH1 0x0 SWAP1 PUSH1 0x80 ADD PUSH1 0x40 DUP1 MLOAD PUSH1 0x1F NOT DUP2 DUP5 SUB ADD DUP2 MSTORE DUP3 DUP3 MSTORE DUP1 MLOAD PUSH1 0x20 SWAP2 DUP3 ADD KECCAK256 SWAP1 DUP4 ADD MSTORE ADD PUSH1 0x40 MLOAD PUSH1 0x20 DUP2 DUP4 SUB SUB DUP2 MSTORE SWAP1 PUSH1 0x40 MSTORE DUP1 MLOAD SWAP1 PUSH1 0x20 ADD KECCAK256 SWAP1 POP PUSH1 0x0 PUSH2 0xE71 DUP7 DUP7 PUSH1 0xA SLOAD DUP6 PUSH2 0x1368 JUMP JUMPDEST SWAP1 POP DUP1 PUSH2 0xE91 JUMPI PUSH1 0x40 MLOAD PUSH4 0xD453FCD PUSH1 0xE3 SHL DUP2 MSTORE PUSH1 0x4 ADD PUSH1 0x40 MLOAD DUP1 SWAP2 SUB SWAP1 REVERT JUMPDEST CALLER PUSH1 0x0 SWAP1 DUP2 MSTORE PUSH1 0x4 PUSH1 0x20 SWAP1 DUP2 MSTORE PUSH1 0x40 DUP1 DUP4 KECCAK256 DUP8 DUP5 MSTORE SWAP1 SWAP2 MSTORE SWAP1 KECCAK256 SLOAD DUP4 DUP2 LT PUSH2 0xECF JUMPI PUSH1 0x40 MLOAD PUSH4 0x598B3DFD PUSH1 0xE1 SHL DUP2 MSTORE PUSH1 0x4 DUP2 ADD DUP6 SWAP1 MSTORE PUSH1 0x24 ADD PUSH2 0x57B JUMP JUMPDEST CALLER PUSH1 0x0 DUP2 DUP2 MSTORE PUSH1 0x4 PUSH1 0x20 SWAP1 DUP2 MSTORE PUSH1 0x40 DUP1 DUP4 KECCAK256 DUP10 DUP5 MSTORE SWAP1 SWAP2 MSTORE SWAP1 KECCAK256 DUP6 SWAP1 SSTORE PUSH2 0xF10 SWAP1 DUP7 PUSH2 0xEFB DUP5 DUP9 PUSH2 0x1BAF JUMP JUMPDEST PUSH1 0x40 MLOAD DUP1 PUSH1 0x20 ADD PUSH1 0x40 MSTORE DUP1 PUSH1 0x0 DUP2 MSTORE POP PUSH2 0x13A2 JUMP JUMPDEST POP POP POP POP POP POP POP JUMP JUMPDEST PUSH1 0x60 PUSH2 0x432 PUSH1 0x7 PUSH1 0x0 SWAP1 SLOAD SWAP1 PUSH2 0x100 EXP SWAP1 DIV PUSH1 0x1 PUSH1 0x1 PUSH1 0xA0 SHL SUB AND PUSH1 0x1 PUSH1 0x1 PUSH1 0xA0 SHL SUB AND PUSH4 0xEAC989F8 PUSH1 0x40 MLOAD DUP2 PUSH4 0xFFFFFFFF AND PUSH1 0xE0 SHL DUP2 MSTORE PUSH1 0x4 ADD PUSH1 0x0 PUSH1 0x40 MLOAD DUP1 DUP4 SUB DUP2 DUP7 GAS STATICCALL ISZERO DUP1 ISZERO PUSH2 0xF71 JUMPI RETURNDATASIZE PUSH1 0x0 DUP1 RETURNDATACOPY RETURNDATASIZE PUSH1 0x0 REVERT JUMPDEST POP POP POP POP PUSH1 0x40 MLOAD RETURNDATASIZE PUSH1 0x0 DUP3 RETURNDATACOPY PUSH1 0x1F RETURNDATASIZE SWAP1 DUP2 ADD PUSH1 0x1F NOT AND DUP3 ADD PUSH1 0x40 MSTORE PUSH2 0xF99 SWAP2 SWAP1 DUP2 ADD SWAP1 PUSH2 0x1AB0 JUMP JUMPDEST PUSH2 0x54C PUSH2 0xFA5 ADDRESS PUSH2 0x11CF JUMP JUMPDEST PUSH2 0x54C PUSH1 0x40 MLOAD DUP1 PUSH1 0x40 ADD PUSH1 0x40 MSTORE DUP1 PUSH1 0x7 DUP2 MSTORE PUSH1 0x20 ADD PUSH7 0x2F726F6C65732F PUSH1 0xC8 SHL DUP2 MSTORE POP PUSH2 0x54C DUP9 PUSH2 0x11F3 JUMP JUMPDEST CALLER PUSH1 0x1 PUSH1 0x1 PUSH1 0xA0 SHL SUB DUP8 AND EQ DUP1 PUSH2 0x100B JUMPI POP PUSH1 0x1 PUSH1 0x1 PUSH1 0xA0 SHL SUB DUP7 AND PUSH1 0x0 SWAP1 DUP2 MSTORE PUSH1 0x2 PUSH1 0x20 SWAP1 DUP2 MSTORE PUSH1 0x40 DUP1 DUP4 KECCAK256 CALLER DUP5 MSTORE SWAP1 SWAP2 MSTORE SWAP1 KECCAK256 SLOAD PUSH1 0xFF AND JUMPDEST PUSH2 0x1048 JUMPI PUSH1 0x40 MLOAD PUSH3 0x461BCD PUSH1 0xE5 SHL DUP2 MSTORE PUSH1 0x20 PUSH1 0x4 DUP3 ADD MSTORE PUSH1 0xE PUSH1 0x24 DUP3 ADD MSTORE PUSH14 0x1393D517D055551213D492569151 PUSH1 0x92 SHL PUSH1 0x44 DUP3 ADD MSTORE PUSH1 0x64 ADD PUSH2 0x57B JUMP JUMPDEST PUSH1 0x1 PUSH1 0x1 PUSH1 0xA0 SHL SUB DUP7 AND PUSH1 0x0 SWAP1 DUP2 MSTORE PUSH1 0x1 PUSH1 0x20 SWAP1 DUP2 MSTORE PUSH1 0x40 DUP1 DUP4 KECCAK256 DUP8 DUP5 MSTORE SWAP1 SWAP2 MSTORE DUP2 KECCAK256 DUP1 SLOAD DUP6 SWAP3 SWAP1 PUSH2 0x107B SWAP1 DUP5 SWAP1 PUSH2 0x1BAF JUMP JUMPDEST SWAP1 SWAP2 SSTORE POP POP PUSH1 0x1 PUSH1 0x1 PUSH1 0xA0 SHL SUB DUP6 AND PUSH1 0x0 SWAP1 DUP2 MSTORE PUSH1 0x1 PUSH1 0x20 SWAP1 DUP2 MSTORE PUSH1 0x40 DUP1 DUP4 KECCAK256 DUP8 DUP5 MSTORE SWAP1 SWAP2 MSTORE DUP2 KECCAK256 DUP1 SLOAD DUP6 SWAP3 SWAP1 PUSH2 0x10B3 SWAP1 DUP5 SWAP1 PUSH2 0x1BC2 JUMP JUMPDEST SWAP1 SWAP2 SSTORE POP POP PUSH1 0x40 DUP1 MLOAD DUP6 DUP2 MSTORE PUSH1 0x20 DUP2 ADD DUP6 SWAP1 MSTORE PUSH1 0x1 PUSH1 0x1 PUSH1 0xA0 SHL SUB DUP1 DUP9 AND SWAP3 SWAP1 DUP10 AND SWAP2 CALLER SWAP2 PUSH32 0xC3D58168C5AE7397731D063D5BBF3D657854427343F4C083240F7AACAA2D0F62 SWAP2 ADD PUSH1 0x40 MLOAD DUP1 SWAP2 SUB SWAP1 LOG4 PUSH1 0x1 PUSH1 0x1 PUSH1 0xA0 SHL SUB DUP6 AND EXTCODESIZE ISZERO PUSH2 0x119E JUMPI PUSH1 0x40 MLOAD PUSH4 0xF23A6E61 PUSH1 0xE0 SHL DUP1 DUP3 MSTORE SWAP1 PUSH1 0x1 PUSH1 0x1 PUSH1 0xA0 SHL SUB DUP8 AND SWAP1 PUSH4 0xF23A6E61 SWAP1 PUSH2 0x114B SWAP1 CALLER SWAP1 DUP12 SWAP1 DUP11 SWAP1 DUP11 SWAP1 DUP11 SWAP1 DUP11 SWAP1 PUSH1 0x4 ADD PUSH2 0x1D37 JUMP JUMPDEST PUSH1 0x20 PUSH1 0x40 MLOAD DUP1 DUP4 SUB DUP2 PUSH1 0x0 DUP8 GAS CALL ISZERO DUP1 ISZERO PUSH2 0x116A JUMPI RETURNDATASIZE PUSH1 0x0 DUP1 RETURNDATACOPY RETURNDATASIZE PUSH1 0x0 REVERT JUMPDEST POP POP POP POP PUSH1 0x40 MLOAD RETURNDATASIZE PUSH1 0x1F NOT PUSH1 0x1F DUP3 ADD AND DUP3 ADD DUP1 PUSH1 0x40 MSTORE POP DUP2 ADD SWAP1 PUSH2 0x118E SWAP2 SWAP1 PUSH2 0x1CBB JUMP JUMPDEST PUSH1 0x1 PUSH1 0x1 PUSH1 0xE0 SHL SUB NOT AND EQ PUSH2 0x11AB JUMP JUMPDEST PUSH1 0x1 PUSH1 0x1 PUSH1 0xA0 SHL SUB DUP6 AND ISZERO ISZERO JUMPDEST PUSH2 0x11C7 JUMPI PUSH1 0x40 MLOAD PUSH3 0x461BCD PUSH1 0xE5 SHL DUP2 MSTORE PUSH1 0x4 ADD PUSH2 0x57B SWAP1 PUSH2 0x1CD8 JUMP JUMPDEST POP POP POP POP POP POP JUMP JUMPDEST PUSH1 0x60 PUSH2 0x11DA DUP3 PUSH2 0x14EC JUMP JUMPDEST DUP1 MLOAD PUSH2 0x3078 DUP3 MSTORE PUSH1 0x2 ADD PUSH1 0x1 NOT SWAP1 SWAP2 ADD SWAP1 DUP2 MSTORE SWAP3 SWAP2 POP POP JUMP JUMPDEST PUSH1 0x60 PUSH1 0x80 PUSH1 0x40 MLOAD ADD SWAP1 POP PUSH1 0x20 DUP2 ADD PUSH1 0x40 MSTORE PUSH1 0x0 DUP2 MSTORE DUP1 PUSH1 0x0 NOT DUP4 JUMPDEST SWAP3 DUP2 ADD SWAP3 PUSH1 0x30 PUSH1 0xA DUP3 MOD ADD DUP5 MSTORE8 PUSH1 0xA SWAP1 DIV DUP1 PUSH2 0x120E JUMPI POP POP DUP2 SWAP1 SUB PUSH1 0x1F NOT SWAP1 SWAP2 ADD SWAP1 DUP2 MSTORE SWAP2 SWAP1 POP JUMP JUMPDEST PUSH1 0x40 MLOAD DUP3 MLOAD PUSH1 0x1F NOT SWAP1 PUSH1 0x20 DUP2 ADD DUP3 AND JUMPDEST DUP6 DUP2 ADD MLOAD DUP5 DUP3 ADD MSTORE DUP3 ADD DUP1 PUSH2 0x1247 JUMPI POP DUP4 MLOAD DUP6 MLOAD DUP5 ADD DUP4 PUSH1 0x20 DUP4 ADD AND JUMPDEST DUP7 DUP2 ADD MLOAD DUP3 DUP3 ADD MSTORE DUP5 ADD DUP1 PUSH2 0x1264 JUMPI POP POP PUSH1 0x0 SWAP2 ADD DUP4 DUP2 ADD PUSH1 0x20 DUP2 ADD SWAP3 SWAP1 SWAP3 MSTORE DUP4 MSTORE PUSH1 0x3F ADD AND PUSH1 0x40 MSTORE SWAP3 SWAP2 POP POP JUMP JUMPDEST PUSH2 0x129B PUSH2 0x155A JUMP JUMPDEST PUSH1 0x3 DUP1 SLOAD PUSH1 0xFF NOT AND SWAP1 SSTORE PUSH32 0x5DB9EE0A495BF2E6FF9C91A7834C1BA4FDD244A5E8AA4E537BD38AEAE4B073AA CALLER JUMPDEST PUSH1 0x40 MLOAD PUSH1 0x1 PUSH1 0x1 PUSH1 0xA0 SHL SUB SWAP1 SWAP2 AND DUP2 MSTORE PUSH1 0x20 ADD PUSH1 0x40 MLOAD DUP1 SWAP2 SUB SWAP1 LOG1 JUMP JUMPDEST PUSH2 0x12ED PUSH2 0x1322 JUMP JUMPDEST PUSH1 0x3 DUP1 SLOAD PUSH1 0xFF NOT AND PUSH1 0x1 OR SWAP1 SSTORE PUSH32 0x62E78CEA01BEE320CD4E420270B5EA74000D11B0C9F74754EBDBFC544B05A258 PUSH2 0x12C8 CALLER SWAP1 JUMP JUMPDEST PUSH1 0x3 SLOAD PUSH1 0xFF AND ISZERO PUSH2 0x890 JUMPI PUSH1 0x40 MLOAD PUSH3 0x461BCD PUSH1 0xE5 SHL DUP2 MSTORE PUSH1 0x20 PUSH1 0x4 DUP3 ADD MSTORE PUSH1 0x10 PUSH1 0x24 DUP3 ADD MSTORE PUSH16 0x14185D5CD8589B194E881C185D5CD959 PUSH1 0x82 SHL PUSH1 0x44 DUP3 ADD MSTORE PUSH1 0x64 ADD PUSH2 0x57B JUMP JUMPDEST PUSH1 0x0 DUP4 ISZERO PUSH2 0x139A JUMPI DUP4 PUSH1 0x5 SHL DUP6 ADD DUP6 JUMPDEST DUP1 CALLDATALOAD DUP1 DUP6 GT PUSH1 0x5 SHL SWAP5 DUP6 MSTORE PUSH1 0x20 SWAP5 DUP6 XOR MSTORE PUSH1 0x40 PUSH1 0x0 KECCAK256 SWAP4 ADD DUP2 DUP2 LT PUSH2 0x1378 JUMPI POP POP JUMPDEST POP EQ SWAP3 SWAP2 POP POP JUMP JUMPDEST PUSH1 0x1 PUSH1 0x1 PUSH1 0xA0 SHL SUB DUP5 AND PUSH1 0x0 SWAP1 DUP2 MSTORE PUSH1 0x1 PUSH1 0x20 SWAP1 DUP2 MSTORE PUSH1 0x40 DUP1 DUP4 KECCAK256 DUP7 DUP5 MSTORE SWAP1 SWAP2 MSTORE DUP2 KECCAK256 DUP1 SLOAD DUP5 SWAP3 SWAP1 PUSH2 0x13D5 SWAP1 DUP5 SWAP1 PUSH2 0x1BC2 JUMP JUMPDEST SWAP1 SWAP2 SSTORE POP POP PUSH1 0x40 DUP1 MLOAD DUP5 DUP2 MSTORE PUSH1 0x20 DUP2 ADD DUP5 SWAP1 MSTORE PUSH1 0x1 PUSH1 0x1 PUSH1 0xA0 SHL SUB DUP7 AND SWAP2 PUSH1 0x0 SWAP2 CALLER SWAP2 PUSH32 0xC3D58168C5AE7397731D063D5BBF3D657854427343F4C083240F7AACAA2D0F62 SWAP2 ADD PUSH1 0x40 MLOAD DUP1 SWAP2 SUB SWAP1 LOG4 PUSH1 0x1 PUSH1 0x1 PUSH1 0xA0 SHL SUB DUP5 AND EXTCODESIZE ISZERO PUSH2 0x14BD JUMPI PUSH1 0x40 MLOAD PUSH4 0xF23A6E61 PUSH1 0xE0 SHL DUP1 DUP3 MSTORE SWAP1 PUSH1 0x1 PUSH1 0x1 PUSH1 0xA0 SHL SUB DUP7 AND SWAP1 PUSH4 0xF23A6E61 SWAP1 PUSH2 0x146A SWAP1 CALLER SWAP1 PUSH1 0x0 SWAP1 DUP10 SWAP1 DUP10 SWAP1 DUP10 SWAP1 PUSH1 0x4 ADD PUSH2 0x1D7E JUMP JUMPDEST PUSH1 0x20 PUSH1 0x40 MLOAD DUP1 DUP4 SUB DUP2 PUSH1 0x0 DUP8 GAS CALL ISZERO DUP1 ISZERO PUSH2 0x1489 JUMPI RETURNDATASIZE PUSH1 0x0 DUP1 RETURNDATACOPY RETURNDATASIZE PUSH1 0x0 REVERT JUMPDEST POP POP POP POP PUSH1 0x40 MLOAD RETURNDATASIZE PUSH1 0x1F NOT PUSH1 0x1F DUP3 ADD AND DUP3 ADD DUP1 PUSH1 0x40 MSTORE POP DUP2 ADD SWAP1 PUSH2 0x14AD SWAP2 SWAP1 PUSH2 0x1CBB JUMP JUMPDEST PUSH1 0x1 PUSH1 0x1 PUSH1 0xE0 SHL SUB NOT AND EQ PUSH2 0x14CA JUMP JUMPDEST PUSH1 0x1 PUSH1 0x1 PUSH1 0xA0 SHL SUB DUP5 AND ISZERO ISZERO JUMPDEST PUSH2 0x14E6 JUMPI PUSH1 0x40 MLOAD PUSH3 0x461BCD PUSH1 0xE5 SHL DUP2 MSTORE PUSH1 0x4 ADD PUSH2 0x57B SWAP1 PUSH2 0x1CD8 JUMP JUMPDEST POP POP POP POP JUMP JUMPDEST PUSH1 0x60 PUSH1 0x40 MLOAD SWAP1 POP PUSH1 0x80 DUP2 ADD PUSH1 0x40 MSTORE PUSH16 0x30313233343536373839616263646566 PUSH1 0xF MSTORE PUSH1 0x2 DUP2 ADD SWAP1 POP PUSH1 0x28 DUP2 MSTORE PUSH1 0x20 DUP2 ADD PUSH1 0x0 PUSH1 0x28 DUP3 ADD MSTORE DUP3 PUSH1 0x60 SHL SWAP3 POP PUSH1 0x0 JUMPDEST DUP1 DUP2 ADD DUP3 ADD DUP5 DUP3 BYTE PUSH1 0xF DUP2 AND MLOAD PUSH1 0x1 DUP4 ADD MSTORE8 DUP1 PUSH1 0x4 SHR MLOAD DUP3 MSTORE8 POP POP PUSH1 0x1 DUP2 ADD SWAP1 PUSH1 0x12 NOT ADD ISZERO PUSH2 0xC4B JUMPI PUSH2 0x152C JUMP JUMPDEST PUSH1 0x3 SLOAD PUSH1 0xFF AND PUSH2 0x890 JUMPI PUSH1 0x40 MLOAD PUSH3 0x461BCD PUSH1 0xE5 SHL DUP2 MSTORE PUSH1 0x20 PUSH1 0x4 DUP3 ADD MSTORE PUSH1 0x14 PUSH1 0x24 DUP3 ADD MSTORE PUSH20 0x14185D5CD8589B194E881B9BDD081C185D5CD959 PUSH1 0x62 SHL PUSH1 0x44 DUP3 ADD MSTORE PUSH1 0x64 ADD PUSH2 0x57B JUMP JUMPDEST DUP3 DUP1 SLOAD DUP3 DUP3 SSTORE SWAP1 PUSH1 0x0 MSTORE PUSH1 0x20 PUSH1 0x0 KECCAK256 SWAP1 DUP2 ADD SWAP3 DUP3 ISZERO PUSH2 0x15DE JUMPI SWAP2 PUSH1 0x20 MUL DUP3 ADD JUMPDEST DUP3 DUP2 GT ISZERO PUSH2 0x15DE JUMPI DUP3 CALLDATALOAD DUP3 SSTORE SWAP2 PUSH1 0x20 ADD SWAP2 SWAP1 PUSH1 0x1 ADD SWAP1 PUSH2 0x15C3 JUMP JUMPDEST POP PUSH2 0x15EA SWAP3 SWAP2 POP PUSH2 0x15EE JUMP JUMPDEST POP SWAP1 JUMP JUMPDEST JUMPDEST DUP1 DUP3 GT ISZERO PUSH2 0x15EA JUMPI PUSH1 0x0 DUP2 SSTORE PUSH1 0x1 ADD PUSH2 0x15EF JUMP JUMPDEST DUP1 CALLDATALOAD PUSH1 0x1 PUSH1 0x1 PUSH1 0xA0 SHL SUB DUP2 AND DUP2 EQ PUSH2 0x161A JUMPI PUSH1 0x0 DUP1 REVERT JUMPDEST SWAP2 SWAP1 POP JUMP JUMPDEST PUSH1 0x0 DUP1 PUSH1 0x40 DUP4 DUP6 SUB SLT ISZERO PUSH2 0x1632 JUMPI PUSH1 0x0 DUP1 REVERT JUMPDEST PUSH2 0x163B DUP4 PUSH2 0x1603 JUMP JUMPDEST SWAP5 PUSH1 0x20 SWAP4 SWAP1 SWAP4 ADD CALLDATALOAD SWAP4 POP POP POP JUMP JUMPDEST PUSH1 0x1 PUSH1 0x1 PUSH1 0xE0 SHL SUB NOT DUP2 AND DUP2 EQ PUSH2 0x165F JUMPI PUSH1 0x0 DUP1 REVERT JUMPDEST POP JUMP JUMPDEST PUSH1 0x0 PUSH1 0x20 DUP3 DUP5 SUB SLT ISZERO PUSH2 0x1674 JUMPI PUSH1 0x0 DUP1 REVERT JUMPDEST DUP2 CALLDATALOAD PUSH2 0x167F DUP2 PUSH2 0x1649 JUMP JUMPDEST SWAP4 SWAP3 POP POP POP JUMP JUMPDEST PUSH1 0x0 PUSH1 0x20 DUP3 DUP5 SUB SLT ISZERO PUSH2 0x1698 JUMPI PUSH1 0x0 DUP1 REVERT JUMPDEST POP CALLDATALOAD SWAP2 SWAP1 POP JUMP JUMPDEST PUSH1 0x20 DUP1 DUP3 MSTORE DUP3 MLOAD DUP3 DUP3 ADD DUP2 SWAP1 MSTORE PUSH1 0x0 SWAP2 SWAP1 DUP5 DUP3 ADD SWAP1 PUSH1 0x40 DUP6 ADD SWAP1 DUP5 JUMPDEST DUP2 DUP2 LT ISZERO PUSH2 0x16D7 JUMPI DUP4 MLOAD DUP4 MSTORE SWAP3 DUP5 ADD SWAP3 SWAP2 DUP5 ADD SWAP2 PUSH1 0x1 ADD PUSH2 0x16BB JUMP JUMPDEST POP SWAP1 SWAP7 SWAP6 POP POP POP POP POP POP JUMP JUMPDEST PUSH1 0x0 JUMPDEST DUP4 DUP2 LT ISZERO PUSH2 0x16FE JUMPI DUP2 DUP2 ADD MLOAD DUP4 DUP3 ADD MSTORE PUSH1 0x20 ADD PUSH2 0x16E6 JUMP JUMPDEST POP POP PUSH1 0x0 SWAP2 ADD MSTORE JUMP JUMPDEST PUSH1 0x0 DUP2 MLOAD DUP1 DUP5 MSTORE PUSH2 0x171F DUP2 PUSH1 0x20 DUP7 ADD PUSH1 0x20 DUP7 ADD PUSH2 0x16E3 JUMP JUMPDEST PUSH1 0x1F ADD PUSH1 0x1F NOT AND SWAP3 SWAP1 SWAP3 ADD PUSH1 0x20 ADD SWAP3 SWAP2 POP POP JUMP JUMPDEST PUSH1 0x20 DUP2 MSTORE PUSH1 0x0 PUSH2 0x167F PUSH1 0x20 DUP4 ADD DUP5 PUSH2 0x1707 JUMP JUMPDEST PUSH1 0x0 DUP1 DUP4 PUSH1 0x1F DUP5 ADD SLT PUSH2 0x1758 JUMPI PUSH1 0x0 DUP1 REVERT JUMPDEST POP DUP2 CALLDATALOAD PUSH8 0xFFFFFFFFFFFFFFFF DUP2 GT ISZERO PUSH2 0x1770 JUMPI PUSH1 0x0 DUP1 REVERT JUMPDEST PUSH1 0x20 DUP4 ADD SWAP2 POP DUP4 PUSH1 0x20 DUP3 PUSH1 0x5 SHL DUP6 ADD ADD GT ISZERO PUSH2 0x178B JUMPI PUSH1 0x0 DUP1 REVERT JUMPDEST SWAP3 POP SWAP3 SWAP1 POP JUMP JUMPDEST PUSH1 0x0 DUP1 DUP4 PUSH1 0x1F DUP5 ADD SLT PUSH2 0x17A4 JUMPI PUSH1 0x0 DUP1 REVERT JUMPDEST POP DUP2 CALLDATALOAD PUSH8 0xFFFFFFFFFFFFFFFF DUP2 GT ISZERO PUSH2 0x17BC JUMPI PUSH1 0x0 DUP1 REVERT JUMPDEST PUSH1 0x20 DUP4 ADD SWAP2 POP DUP4 PUSH1 0x20 DUP3 DUP6 ADD ADD GT ISZERO PUSH2 0x178B JUMPI PUSH1 0x0 DUP1 REVERT JUMPDEST PUSH1 0x0 DUP1 PUSH1 0x0 DUP1 PUSH1 0x0 DUP1 PUSH1 0x0 DUP1 PUSH1 0xA0 DUP10 DUP12 SUB SLT ISZERO PUSH2 0x17F0 JUMPI PUSH1 0x0 DUP1 REVERT JUMPDEST PUSH2 0x17F9 DUP10 PUSH2 0x1603 JUMP JUMPDEST SWAP8 POP PUSH2 0x1807 PUSH1 0x20 DUP11 ADD PUSH2 0x1603 JUMP JUMPDEST SWAP7 POP PUSH1 0x40 DUP10 ADD CALLDATALOAD PUSH8 0xFFFFFFFFFFFFFFFF DUP1 DUP3 GT ISZERO PUSH2 0x1824 JUMPI PUSH1 0x0 DUP1 REVERT JUMPDEST PUSH2 0x1830 DUP13 DUP4 DUP14 ADD PUSH2 0x1746 JUMP JUMPDEST SWAP1 SWAP9 POP SWAP7 POP PUSH1 0x60 DUP12 ADD CALLDATALOAD SWAP2 POP DUP1 DUP3 GT ISZERO PUSH2 0x1849 JUMPI PUSH1 0x0 DUP1 REVERT JUMPDEST PUSH2 0x1855 DUP13 DUP4 DUP14 ADD PUSH2 0x1746 JUMP JUMPDEST SWAP1 SWAP7 POP SWAP5 POP PUSH1 0x80 DUP12 ADD CALLDATALOAD SWAP2 POP DUP1 DUP3 GT ISZERO PUSH2 0x186E JUMPI PUSH1 0x0 DUP1 REVERT JUMPDEST POP PUSH2 0x187B DUP12 DUP3 DUP13 ADD PUSH2 0x1792 JUMP JUMPDEST SWAP10 SWAP13 SWAP9 SWAP12 POP SWAP7 SWAP10 POP SWAP5 SWAP8 SWAP4 SWAP7 SWAP3 SWAP6 SWAP5 POP POP POP JUMP JUMPDEST PUSH1 0x0 DUP1 PUSH1 0x0 DUP1 PUSH1 0x40 DUP6 DUP8 SUB SLT ISZERO PUSH2 0x18A5 JUMPI PUSH1 0x0 DUP1 REVERT JUMPDEST DUP5 CALLDATALOAD PUSH8 0xFFFFFFFFFFFFFFFF DUP1 DUP3 GT ISZERO PUSH2 0x18BD JUMPI PUSH1 0x0 DUP1 REVERT JUMPDEST PUSH2 0x18C9 DUP9 DUP4 DUP10 ADD PUSH2 0x1746 JUMP JUMPDEST SWAP1 SWAP7 POP SWAP5 POP PUSH1 0x20 DUP8 ADD CALLDATALOAD SWAP2 POP DUP1 DUP3 GT ISZERO PUSH2 0x18E2 JUMPI PUSH1 0x0 DUP1 REVERT JUMPDEST POP PUSH2 0x18EF DUP8 DUP3 DUP9 ADD PUSH2 0x1746 JUMP JUMPDEST SWAP6 SWAP9 SWAP5 SWAP8 POP SWAP6 POP POP POP POP JUMP JUMPDEST PUSH1 0x0 DUP1 PUSH1 0x40 DUP4 DUP6 SUB SLT ISZERO PUSH2 0x190E JUMPI PUSH1 0x0 DUP1 REVERT JUMPDEST PUSH2 0x1917 DUP4 PUSH2 0x1603 JUMP JUMPDEST SWAP2 POP PUSH1 0x20 DUP4 ADD CALLDATALOAD DUP1 ISZERO ISZERO DUP2 EQ PUSH2 0x192C JUMPI PUSH1 0x0 DUP1 REVERT JUMPDEST DUP1 SWAP2 POP POP SWAP3 POP SWAP3 SWAP1 POP JUMP JUMPDEST PUSH1 0x0 DUP1 PUSH1 0x0 PUSH1 0x40 DUP5 DUP7 SUB SLT ISZERO PUSH2 0x194C JUMPI PUSH1 0x0 DUP1 REVERT JUMPDEST DUP4 CALLDATALOAD SWAP3 POP PUSH1 0x20 DUP5 ADD CALLDATALOAD PUSH8 0xFFFFFFFFFFFFFFFF DUP2 GT ISZERO PUSH2 0x196A JUMPI PUSH1 0x0 DUP1 REVERT JUMPDEST PUSH2 0x1976 DUP7 DUP3 DUP8 ADD PUSH2 0x1746 JUMP JUMPDEST SWAP5 SWAP8 SWAP1 SWAP7 POP SWAP4 SWAP5 POP POP POP POP JUMP JUMPDEST PUSH1 0x0 PUSH1 0x20 DUP3 DUP5 SUB SLT ISZERO PUSH2 0x1995 JUMPI PUSH1 0x0 DUP1 REVERT JUMPDEST PUSH2 0x167F DUP3 PUSH2 0x1603 JUMP JUMPDEST PUSH1 0x0 DUP1 PUSH1 0x0 DUP1 PUSH1 0x60 DUP6 DUP8 SUB SLT ISZERO PUSH2 0x19B4 JUMPI PUSH1 0x0 DUP1 REVERT JUMPDEST DUP5 CALLDATALOAD PUSH8 0xFFFFFFFFFFFFFFFF DUP2 GT ISZERO PUSH2 0x19CB JUMPI PUSH1 0x0 DUP1 REVERT JUMPDEST PUSH2 0x19D7 DUP8 DUP3 DUP9 ADD PUSH2 0x1746 JUMP JUMPDEST SWAP1 SWAP9 SWAP1 SWAP8 POP PUSH1 0x20 DUP8 ADD CALLDATALOAD SWAP7 PUSH1 0x40 ADD CALLDATALOAD SWAP6 POP SWAP4 POP POP POP POP JUMP JUMPDEST PUSH1 0x0 DUP1 PUSH1 0x40 DUP4 DUP6 SUB SLT ISZERO PUSH2 0x1A02 JUMPI PUSH1 0x0 DUP1 REVERT JUMPDEST PUSH2 0x1A0B DUP4 PUSH2 0x1603 JUMP JUMPDEST SWAP2 POP PUSH2 0x1A19 PUSH1 0x20 DUP5 ADD PUSH2 0x1603 JUMP JUMPDEST SWAP1 POP SWAP3 POP SWAP3 SWAP1 POP JUMP JUMPDEST PUSH1 0x0 DUP1 PUSH1 0x0 DUP1 PUSH1 0x0 DUP1 PUSH1 0xA0 DUP8 DUP10 SUB SLT ISZERO PUSH2 0x1A3B JUMPI PUSH1 0x0 DUP1 REVERT JUMPDEST PUSH2 0x1A44 DUP8 PUSH2 0x1603 JUMP JUMPDEST SWAP6 POP PUSH2 0x1A52 PUSH1 0x20 DUP9 ADD PUSH2 0x1603 JUMP JUMPDEST SWAP5 POP PUSH1 0x40 DUP8 ADD CALLDATALOAD SWAP4 POP PUSH1 0x60 DUP8 ADD CALLDATALOAD SWAP3 POP PUSH1 0x80 DUP8 ADD CALLDATALOAD PUSH8 0xFFFFFFFFFFFFFFFF DUP2 GT ISZERO PUSH2 0x1A7C JUMPI PUSH1 0x0 DUP1 REVERT JUMPDEST PUSH2 0x1A88 DUP10 DUP3 DUP11 ADD PUSH2 0x1792 JUMP JUMPDEST SWAP8 SWAP11 SWAP7 SWAP10 POP SWAP5 SWAP8 POP SWAP3 SWAP6 SWAP4 SWAP5 SWAP3 POP POP POP JUMP JUMPDEST PUSH4 0x4E487B71 PUSH1 0xE0 SHL PUSH1 0x0 MSTORE PUSH1 0x41 PUSH1 0x4 MSTORE PUSH1 0x24 PUSH1 0x0 REVERT JUMPDEST PUSH1 0x0 PUSH1 0x20 DUP3 DUP5 SUB SLT ISZERO PUSH2 0x1AC2 JUMPI PUSH1 0x0 DUP1 REVERT JUMPDEST DUP2 MLOAD PUSH8 0xFFFFFFFFFFFFFFFF DUP1 DUP3 GT ISZERO PUSH2 0x1ADA JUMPI PUSH1 0x0 DUP1 REVERT JUMPDEST DUP2 DUP5 ADD SWAP2 POP DUP5 PUSH1 0x1F DUP4 ADD SLT PUSH2 0x1AEE JUMPI PUSH1 0x0 DUP1 REVERT JUMPDEST DUP2 MLOAD DUP2 DUP2 GT ISZERO PUSH2 0x1B00 JUMPI PUSH2 0x1B00 PUSH2 0x1A9A JUMP JUMPDEST PUSH1 0x40 MLOAD PUSH1 0x1F DUP3 ADD PUSH1 0x1F NOT SWAP1 DUP2 AND PUSH1 0x3F ADD AND DUP2 ADD SWAP1 DUP4 DUP3 GT DUP2 DUP4 LT OR ISZERO PUSH2 0x1B28 JUMPI PUSH2 0x1B28 PUSH2 0x1A9A JUMP JUMPDEST DUP2 PUSH1 0x40 MSTORE DUP3 DUP2 MSTORE DUP8 PUSH1 0x20 DUP5 DUP8 ADD ADD GT ISZERO PUSH2 0x1B41 JUMPI PUSH1 0x0 DUP1 REVERT JUMPDEST PUSH2 0x1B52 DUP4 PUSH1 0x20 DUP4 ADD PUSH1 0x20 DUP9 ADD PUSH2 0x16E3 JUMP JUMPDEST SWAP8 SWAP7 POP POP POP POP POP POP POP JUMP JUMPDEST PUSH1 0x20 DUP1 DUP3 MSTORE PUSH1 0xC SWAP1 DUP3 ADD MSTORE PUSH12 0x15539055551213D492569151 PUSH1 0xA2 SHL PUSH1 0x40 DUP3 ADD MSTORE PUSH1 0x60 ADD SWAP1 JUMP JUMPDEST PUSH4 0x4E487B71 PUSH1 0xE0 SHL PUSH1 0x0 MSTORE PUSH1 0x32 PUSH1 0x4 MSTORE PUSH1 0x24 PUSH1 0x0 REVERT JUMPDEST PUSH4 0x4E487B71 PUSH1 0xE0 SHL PUSH1 0x0 MSTORE PUSH1 0x11 PUSH1 0x4 MSTORE PUSH1 0x24 PUSH1 0x0 REVERT JUMPDEST DUP2 DUP2 SUB DUP2 DUP2 GT ISZERO PUSH2 0x432 JUMPI PUSH2 0x432 PUSH2 0x1B99 JUMP JUMPDEST DUP1 DUP3 ADD DUP1 DUP3 GT ISZERO PUSH2 0x432 JUMPI PUSH2 0x432 PUSH2 0x1B99 JUMP JUMPDEST DUP2 DUP4 MSTORE PUSH1 0x0 PUSH1 0x1 PUSH1 0x1 PUSH1 0xFB SHL SUB DUP4 GT ISZERO PUSH2 0x1BEE JUMPI PUSH1 0x0 DUP1 REVERT JUMPDEST DUP3 PUSH1 0x5 SHL DUP1 DUP4 PUSH1 0x20 DUP8 ADD CALLDATACOPY SWAP4 SWAP1 SWAP4 ADD PUSH1 0x20 ADD SWAP4 SWAP3 POP POP POP JUMP JUMPDEST PUSH1 0x40 DUP2 MSTORE PUSH1 0x0 PUSH2 0x1C1B PUSH1 0x40 DUP4 ADD DUP7 DUP9 PUSH2 0x1BD5 JUMP JUMPDEST DUP3 DUP2 SUB PUSH1 0x20 DUP5 ADD MSTORE PUSH2 0x1B52 DUP2 DUP6 DUP8 PUSH2 0x1BD5 JUMP JUMPDEST DUP2 DUP4 MSTORE DUP2 DUP2 PUSH1 0x20 DUP6 ADD CALLDATACOPY POP PUSH1 0x0 DUP3 DUP3 ADD PUSH1 0x20 SWAP1 DUP2 ADD SWAP2 SWAP1 SWAP2 MSTORE PUSH1 0x1F SWAP1 SWAP2 ADD PUSH1 0x1F NOT AND SWAP1 SWAP2 ADD ADD SWAP1 JUMP JUMPDEST PUSH1 0x1 PUSH1 0x1 PUSH1 0xA0 SHL SUB DUP10 DUP2 AND DUP3 MSTORE DUP9 AND PUSH1 0x20 DUP3 ADD MSTORE PUSH1 0xA0 PUSH1 0x40 DUP3 ADD DUP2 SWAP1 MSTORE PUSH1 0x0 SWAP1 PUSH2 0x1C84 SWAP1 DUP4 ADD DUP9 DUP11 PUSH2 0x1BD5 JUMP JUMPDEST DUP3 DUP2 SUB PUSH1 0x60 DUP5 ADD MSTORE PUSH2 0x1C97 DUP2 DUP8 DUP10 PUSH2 0x1BD5 JUMP JUMPDEST SWAP1 POP DUP3 DUP2 SUB PUSH1 0x80 DUP5 ADD MSTORE PUSH2 0x1CAC DUP2 DUP6 DUP8 PUSH2 0x1C2E JUMP JUMPDEST SWAP12 SWAP11 POP POP POP POP POP POP POP POP POP POP POP JUMP JUMPDEST PUSH1 0x0 PUSH1 0x20 DUP3 DUP5 SUB SLT ISZERO PUSH2 0x1CCD JUMPI PUSH1 0x0 DUP1 REVERT JUMPDEST DUP2 MLOAD PUSH2 0x167F DUP2 PUSH2 0x1649 JUMP JUMPDEST PUSH1 0x20 DUP1 DUP3 MSTORE PUSH1 0x10 SWAP1 DUP3 ADD MSTORE PUSH16 0x155394D0519157D49150D25412515395 PUSH1 0x82 SHL PUSH1 0x40 DUP3 ADD MSTORE PUSH1 0x60 ADD SWAP1 JUMP JUMPDEST PUSH1 0x20 DUP2 MSTORE PUSH1 0x0 PUSH2 0x1D16 PUSH1 0x20 DUP4 ADD DUP5 DUP7 PUSH2 0x1BD5 JUMP JUMPDEST SWAP5 SWAP4 POP POP POP POP JUMP JUMPDEST PUSH1 0x0 PUSH1 0x1 DUP3 ADD PUSH2 0x1D30 JUMPI PUSH2 0x1D30 PUSH2 0x1B99 JUMP JUMPDEST POP PUSH1 0x1 ADD SWAP1 JUMP JUMPDEST PUSH1 0x1 PUSH1 0x1 PUSH1 0xA0 SHL SUB DUP8 DUP2 AND DUP3 MSTORE DUP7 AND PUSH1 0x20 DUP3 ADD MSTORE PUSH1 0x40 DUP2 ADD DUP6 SWAP1 MSTORE PUSH1 0x60 DUP2 ADD DUP5 SWAP1 MSTORE PUSH1 0xA0 PUSH1 0x80 DUP3 ADD DUP2 SWAP1 MSTORE PUSH1 0x0 SWAP1 PUSH2 0x1D72 SWAP1 DUP4 ADD DUP5 DUP7 PUSH2 0x1C2E JUMP JUMPDEST SWAP9 SWAP8 POP POP POP POP POP POP POP POP JUMP JUMPDEST PUSH1 0x1 PUSH1 0x1 PUSH1 0xA0 SHL SUB DUP7 DUP2 AND DUP3 MSTORE DUP6 AND PUSH1 0x20 DUP3 ADD MSTORE PUSH1 0x40 DUP2 ADD DUP5 SWAP1 MSTORE PUSH1 0x60 DUP2 ADD DUP4 SWAP1 MSTORE PUSH1 0xA0 PUSH1 0x80 DUP3 ADD DUP2 SWAP1 MSTORE PUSH1 0x0 SWAP1 PUSH2 0x1B52 SWAP1 DUP4 ADD DUP5 PUSH2 0x1707 JUMP INVALID LOG2 PUSH5 0x6970667358 0x22 SLT KECCAK256 0xC4 PUSH26 0x282B463B66FE1BC315049F5961BB5728F244C920346F3A6BC2A1 0x29 PUSH28 0x7ACB64736F6C63430008120033000000000000000000000000000000 "
		},
		"gasEstimates": {
			"creation": {
				"codeDepositCost": "1532400",
				"executionCost": "25821",
				"totalCost": "1558221"
			},
			"external": {
				"balanceOf(address,uint256)": "2625",
				"balanceOfBatch(address[],uint256[])": "infinite",
				"claim(bytes32[],uint256,uint256)": "infinite",
				"factory()": "2470",
				"getBalances(address)": "infinite",
				"getRoleIds(uint256)": "infinite",
				"initialize(address,uint256)": "177461",
				"isApprovedForAll(address,address)": "infinite",
				"maxTokenId()": "2373",
				"merkleRoot()": "2352",
				"owner()": "2404",
				"pause()": "infinite",
				"paused()": "2371",
				"roleURI(uint256)": "infinite",
				"safeBatchTransferFrom(address,address,uint256[],uint256[],bytes)": "infinite",
				"safeTransferFrom(address,address,uint256,uint256,bytes)": "infinite",
				"setApprovalForAll(address,bool)": "26696",
				"setMaxTokenId(uint256)": "25755",
				"setMerkleRoot(bytes32)": "25732",
				"setRoleIds(uint256,uint256[])": "infinite",
				"setStartDate(uint256)": "25644",
				"startDate()": "2374",
				"supportsInterface(bytes4)": "567",
				"tokensClaimed(address,uint256)": "2690",
				"unpause()": "infinite",
				"uri(uint256)": "infinite"
			}
		},
		"methodIdentifiers": {
			"balanceOf(address,uint256)": "00fdd58e",
			"balanceOfBatch(address[],uint256[])": "4e1273f4",
			"claim(bytes32[],uint256,uint256)": "d4a6da09",
			"factory()": "c45a0155",
			"getBalances(address)": "c84aae17",
			"getRoleIds(uint256)": "071d709f",
			"initialize(address,uint256)": "cd6dc687",
			"isApprovedForAll(address,address)": "e985e9c5",
			"maxTokenId()": "91ba317a",
			"merkleRoot()": "2eb4a7ab",
			"owner()": "8da5cb5b",
			"pause()": "8456cb59",
			"paused()": "5c975abb",
			"roleURI(uint256)": "dc023d97",
			"safeBatchTransferFrom(address,address,uint256[],uint256[],bytes)": "2eb2c2d6",
			"safeTransferFrom(address,address,uint256,uint256,bytes)": "f242432a",
			"setApprovalForAll(address,bool)": "a22cb465",
			"setMaxTokenId(uint256)": "202fcbbd",
			"setMerkleRoot(bytes32)": "7cb64759",
			"setRoleIds(uint256,uint256[])": "c60c5e77",
			"setStartDate(uint256)": "82d95df5",
			"startDate()": "0b97bc86",
			"supportsInterface(bytes4)": "01ffc9a7",
			"tokensClaimed(address,uint256)": "734ee5fc",
			"unpause()": "3f4ba83a",
			"uri(uint256)": "0e89341c"
		}
	},
	"abi": [
		{
			"inputs": [
				{
					"internalType": "uint256",
					"name": "alreadyClaimed",
					"type": "uint256"
				}
			],
			"name": "AlreadyClaimed",
			"type": "error"
		},
		{
			"inputs": [],
			"name": "EventAlreadyStarted",
			"type": "error"
		},
		{
			"inputs": [],
			"name": "ImproperProof",
			"type": "error"
		},
		{
			"inputs": [],
			"name": "TooBigTokenId",
			"type": "error"
		},
		{
			"anonymous": false,
			"inputs": [
				{
					"indexed": true,
					"internalType": "address",
					"name": "owner",
					"type": "address"
				},
				{
					"indexed": true,
					"internalType": "address",
					"name": "operator",
					"type": "address"
				},
				{
					"indexed": false,
					"internalType": "bool",
					"name": "approved",
					"type": "bool"
				}
			],
			"name": "ApprovalForAll",
			"type": "event"
		},
		{
			"anonymous": false,
			"inputs": [
				{
					"indexed": false,
					"internalType": "uint8",
					"name": "version",
					"type": "uint8"
				}
			],
			"name": "Initialized",
			"type": "event"
		},
		{
			"anonymous": false,
			"inputs": [
				{
					"indexed": true,
					"internalType": "address",
					"name": "user",
					"type": "address"
				},
				{
					"indexed": true,
					"internalType": "address",
					"name": "newOwner",
					"type": "address"
				}
			],
			"name": "OwnershipTransferred",
			"type": "event"
		},
		{
			"anonymous": false,
			"inputs": [
				{
					"indexed": false,
					"internalType": "address",
					"name": "account",
					"type": "address"
				}
			],
			"name": "Paused",
			"type": "event"
		},
		{
			"anonymous": false,
			"inputs": [
				{
					"indexed": true,
					"internalType": "uint256",
					"name": "maxTokenId_",
					"type": "uint256"
				}
			],
			"name": "SetMaxTokenId",
			"type": "event"
		},
		{
			"anonymous": false,
			"inputs": [
				{
					"indexed": true,
					"internalType": "bytes32",
					"name": "merkleRoot_",
					"type": "bytes32"
				}
			],
			"name": "SetMerkleRoot",
			"type": "event"
		},
		{
			"anonymous": false,
			"inputs": [
				{
					"indexed": true,
					"internalType": "uint256",
					"name": "tokenId_",
					"type": "uint256"
				},
				{
					"indexed": false,
					"internalType": "uint256[]",
					"name": "roleIds_",
					"type": "uint256[]"
				}
			],
			"name": "SetRoleIds",
			"type": "event"
		},
		{
			"anonymous": false,
			"inputs": [
				{
					"indexed": true,
					"internalType": "uint256",
					"name": "startDate_",
					"type": "uint256"
				}
			],
			"name": "SetStartDate",
			"type": "event"
		},
		{
			"anonymous": false,
			"inputs": [
				{
					"indexed": true,
					"internalType": "address",
					"name": "operator",
					"type": "address"
				},
				{
					"indexed": true,
					"internalType": "address",
					"name": "from",
					"type": "address"
				},
				{
					"indexed": true,
					"internalType": "address",
					"name": "to",
					"type": "address"
				},
				{
					"indexed": false,
					"internalType": "uint256[]",
					"name": "ids",
					"type": "uint256[]"
				},
				{
					"indexed": false,
					"internalType": "uint256[]",
					"name": "amounts",
					"type": "uint256[]"
				}
			],
			"name": "TransferBatch",
			"type": "event"
		},
		{
			"anonymous": false,
			"inputs": [
				{
					"indexed": true,
					"internalType": "address",
					"name": "operator",
					"type": "address"
				},
				{
					"indexed": true,
					"internalType": "address",
					"name": "from",
					"type": "address"
				},
				{
					"indexed": true,
					"internalType": "address",
					"name": "to",
					"type": "address"
				},
				{
					"indexed": false,
					"internalType": "uint256",
					"name": "id",
					"type": "uint256"
				},
				{
					"indexed": false,
					"internalType": "uint256",
					"name": "amount",
					"type": "uint256"
				}
			],
			"name": "TransferSingle",
			"type": "event"
		},
		{
			"anonymous": false,
			"inputs": [
				{
					"indexed": false,
					"internalType": "string",
					"name": "value",
					"type": "string"
				},
				{
					"indexed": true,
					"internalType": "uint256",
					"name": "id",
					"type": "uint256"
				}
			],
			"name": "URI",
			"type": "event"
		},
		{
			"anonymous": false,
			"inputs": [
				{
					"indexed": false,
					"internalType": "address",
					"name": "account",
					"type": "address"
				}
			],
			"name": "Unpaused",
			"type": "event"
		},
		{
			"inputs": [
				{
					"internalType": "address",
					"name": "",
					"type": "address"
				},
				{
					"internalType": "uint256",
					"name": "",
					"type": "uint256"
				}
			],
			"name": "balanceOf",
			"outputs": [
				{
					"internalType": "uint256",
					"name": "",
					"type": "uint256"
				}
			],
			"stateMutability": "view",
			"type": "function"
		},
		{
			"inputs": [
				{
					"internalType": "address[]",
					"name": "owners",
					"type": "address[]"
				},
				{
					"internalType": "uint256[]",
					"name": "ids",
					"type": "uint256[]"
				}
			],
			"name": "balanceOfBatch",
			"outputs": [
				{
					"internalType": "uint256[]",
					"name": "balances",
					"type": "uint256[]"
				}
			],
			"stateMutability": "view",
			"type": "function"
		},
		{
			"inputs": [
				{
					"internalType": "bytes32[]",
					"name": "merkleProof",
					"type": "bytes32[]"
				},
				{
					"internalType": "uint256",
					"name": "tokenId",
					"type": "uint256"
				},
				{
					"internalType": "uint256",
					"name": "amount",
					"type": "uint256"
				}
			],
			"name": "claim",
			"outputs": [],
			"stateMutability": "nonpayable",
			"type": "function"
		},
		{
			"inputs": [],
			"name": "factory",
			"outputs": [
				{
					"internalType": "address",
					"name": "",
					"type": "address"
				}
			],
			"stateMutability": "view",
			"type": "function"
		},
		{
			"inputs": [
				{
					"internalType": "address",
					"name": "user",
					"type": "address"
				}
			],
			"name": "getBalances",
			"outputs": [
				{
					"internalType": "uint256[]",
					"name": "balances",
					"type": "uint256[]"
				}
			],
			"stateMutability": "view",
			"type": "function"
		},
		{
			"inputs": [
				{
					"internalType": "uint256",
					"name": "tokenId",
					"type": "uint256"
				}
			],
			"name": "getRoleIds",
			"outputs": [
				{
					"internalType": "uint256[]",
					"name": "rolesIds_",
					"type": "uint256[]"
				}
			],
			"stateMutability": "view",
			"type": "function"
		},
		{
			"inputs": [
				{
					"internalType": "address",
					"name": "owner_",
					"type": "address"
				},
				{
					"internalType": "uint256",
					"name": "startDate_",
					"type": "uint256"
				}
			],
			"name": "initialize",
			"outputs": [],
			"stateMutability": "nonpayable",
			"type": "function"
		},
		{
			"inputs": [
				{
					"internalType": "address",
					"name": "",
					"type": "address"
				},
				{
					"internalType": "address",
					"name": "",
					"type": "address"
				}
			],
			"name": "isApprovedForAll",
			"outputs": [
				{
					"internalType": "bool",
					"name": "",
					"type": "bool"
				}
			],
			"stateMutability": "view",
			"type": "function"
		},
		{
			"inputs": [],
			"name": "maxTokenId",
			"outputs": [
				{
					"internalType": "uint256",
					"name": "",
					"type": "uint256"
				}
			],
			"stateMutability": "view",
			"type": "function"
		},
		{
			"inputs": [],
			"name": "merkleRoot",
			"outputs": [
				{
					"internalType": "bytes32",
					"name": "",
					"type": "bytes32"
				}
			],
			"stateMutability": "view",
			"type": "function"
		},
		{
			"inputs": [],
			"name": "owner",
			"outputs": [
				{
					"internalType": "address",
					"name": "",
					"type": "address"
				}
			],
			"stateMutability": "view",
			"type": "function"
		},
		{
			"inputs": [],
			"name": "pause",
			"outputs": [],
			"stateMutability": "nonpayable",
			"type": "function"
		},
		{
			"inputs": [],
			"name": "paused",
			"outputs": [
				{
					"internalType": "bool",
					"name": "",
					"type": "bool"
				}
			],
			"stateMutability": "view",
			"type": "function"
		},
		{
			"inputs": [
				{
					"internalType": "uint256",
					"name": "roleId",
					"type": "uint256"
				}
			],
			"name": "roleURI",
			"outputs": [
				{
					"internalType": "string",
					"name": "roleURI_",
					"type": "string"
				}
			],
			"stateMutability": "view",
			"type": "function"
		},
		{
			"inputs": [
				{
					"internalType": "address",
					"name": "from",
					"type": "address"
				},
				{
					"internalType": "address",
					"name": "to",
					"type": "address"
				},
				{
					"internalType": "uint256[]",
					"name": "ids",
					"type": "uint256[]"
				},
				{
					"internalType": "uint256[]",
					"name": "amounts",
					"type": "uint256[]"
				},
				{
					"internalType": "bytes",
					"name": "data",
					"type": "bytes"
				}
			],
			"name": "safeBatchTransferFrom",
			"outputs": [],
			"stateMutability": "nonpayable",
			"type": "function"
		},
		{
			"inputs": [
				{
					"internalType": "address",
					"name": "from",
					"type": "address"
				},
				{
					"internalType": "address",
					"name": "to",
					"type": "address"
				},
				{
					"internalType": "uint256",
					"name": "id",
					"type": "uint256"
				},
				{
					"internalType": "uint256",
					"name": "amount",
					"type": "uint256"
				},
				{
					"internalType": "bytes",
					"name": "data",
					"type": "bytes"
				}
			],
			"name": "safeTransferFrom",
			"outputs": [],
			"stateMutability": "nonpayable",
			"type": "function"
		},
		{
			"inputs": [
				{
					"internalType": "address",
					"name": "operator",
					"type": "address"
				},
				{
					"internalType": "bool",
					"name": "approved",
					"type": "bool"
				}
			],
			"name": "setApprovalForAll",
			"outputs": [],
			"stateMutability": "nonpayable",
			"type": "function"
		},
		{
			"inputs": [
				{
					"internalType": "uint256",
					"name": "maxTokenId_",
					"type": "uint256"
				}
			],
			"name": "setMaxTokenId",
			"outputs": [],
			"stateMutability": "nonpayable",
			"type": "function"
		},
		{
			"inputs": [
				{
					"internalType": "bytes32",
					"name": "merkleRoot_",
					"type": "bytes32"
				}
			],
			"name": "setMerkleRoot",
			"outputs": [],
			"stateMutability": "nonpayable",
			"type": "function"
		},
		{
			"inputs": [
				{
					"internalType": "uint256",
					"name": "tokenId_",
					"type": "uint256"
				},
				{
					"internalType": "uint256[]",
					"name": "roleIds_",
					"type": "uint256[]"
				}
			],
			"name": "setRoleIds",
			"outputs": [],
			"stateMutability": "nonpayable",
			"type": "function"
		},
		{
			"inputs": [
				{
					"internalType": "uint256",
					"name": "startDate_",
					"type": "uint256"
				}
			],
			"name": "setStartDate",
			"outputs": [],
			"stateMutability": "nonpayable",
			"type": "function"
		},
		{
			"inputs": [],
			"name": "startDate",
			"outputs": [
				{
					"internalType": "uint256",
					"name": "",
					"type": "uint256"
				}
			],
			"stateMutability": "view",
			"type": "function"
		},
		{
			"inputs": [
				{
					"internalType": "bytes4",
					"name": "interfaceId",
					"type": "bytes4"
				}
			],
			"name": "supportsInterface",
			"outputs": [
				{
					"internalType": "bool",
					"name": "",
					"type": "bool"
				}
			],
			"stateMutability": "view",
			"type": "function"
		},
		{
			"inputs": [
				{
					"internalType": "address",
					"name": "user",
					"type": "address"
				},
				{
					"internalType": "uint256",
					"name": "tokenId",
					"type": "uint256"
				}
			],
			"name": "tokensClaimed",
			"outputs": [
				{
					"internalType": "uint256",
					"name": "numberClaimed",
					"type": "uint256"
				}
			],
			"stateMutability": "view",
			"type": "function"
		},
		{
			"inputs": [],
			"name": "unpause",
			"outputs": [],
			"stateMutability": "nonpayable",
			"type": "function"
		},
		{
			"inputs": [
				{
					"internalType": "uint256",
					"name": "tokenId",
					"type": "uint256"
				}
			],
			"name": "uri",
			"outputs": [
				{
					"internalType": "string",
					"name": "tokenURI",
					"type": "string"
				}
			],
			"stateMutability": "view",
			"type": "function"
		}
	]
}